{
	"Election.sol": {
		"Election": {
			"abi": [
				{
					"inputs": [
						{
							"internalType": "string",
							"name": "_candidateName",
							"type": "string"
						}
					],
					"name": "addCandidate",
					"outputs": [],
					"stateMutability": "nonpayable",
					"type": "function"
				},
				{
					"inputs": [
						{
							"internalType": "address",
							"name": "_voterAddress",
							"type": "address"
						}
					],
					"name": "authorizeVoter",
					"outputs": [],
					"stateMutability": "nonpayable",
					"type": "function"
				},
				{
					"inputs": [
						{
							"internalType": "uint256",
							"name": "",
							"type": "uint256"
						}
					],
					"name": "candidates",
					"outputs": [
						{
							"internalType": "string",
							"name": "name",
							"type": "string"
						},
						{
							"internalType": "uint256",
							"name": "numVotes",
							"type": "uint256"
						}
					],
					"stateMutability": "view",
					"type": "function"
				},
				{
					"inputs": [],
					"name": "electionName",
					"outputs": [
						{
							"internalType": "string",
							"name": "",
							"type": "string"
						}
					],
					"stateMutability": "view",
					"type": "function"
				},
				{
					"inputs": [],
					"name": "getNumCandidates",
					"outputs": [
						{
							"internalType": "uint256",
							"name": "",
							"type": "uint256"
						}
					],
					"stateMutability": "view",
					"type": "function"
				},
				{
					"inputs": [],
					"name": "owner",
					"outputs": [
						{
							"internalType": "address",
							"name": "",
							"type": "address"
						}
					],
					"stateMutability": "view",
					"type": "function"
				},
				{
					"inputs": [
						{
							"internalType": "string",
							"name": "_electionName",
							"type": "string"
						}
					],
					"name": "startElection",
					"outputs": [],
					"stateMutability": "nonpayable",
					"type": "function"
				},
				{
					"inputs": [],
					"name": "totalVotes",
					"outputs": [
						{
							"internalType": "uint256",
							"name": "",
							"type": "uint256"
						}
					],
					"stateMutability": "view",
					"type": "function"
				},
				{
					"inputs": [
						{
							"internalType": "uint256",
							"name": "candidateIndex",
							"type": "uint256"
						}
					],
					"name": "vote",
					"outputs": [],
					"stateMutability": "nonpayable",
					"type": "function"
				},
				{
					"inputs": [
						{
							"internalType": "address",
							"name": "",
							"type": "address"
						}
					],
					"name": "voters",
					"outputs": [
						{
							"internalType": "string",
							"name": "name",
							"type": "string"
						},
						{
							"internalType": "bool",
							"name": "authorized",
							"type": "bool"
						},
						{
							"internalType": "uint256",
							"name": "whom",
							"type": "uint256"
						},
						{
							"internalType": "bool",
							"name": "voted",
							"type": "bool"
						}
					],
					"stateMutability": "view",
					"type": "function"
				}
			],
			"devdoc": {
				"kind": "dev",
				"methods": {},
				"version": 1
			},
			"evm": {
				"assembly": "    /* \"Election.sol\":109:1418  contract Election{... */\n  mstore(0x40, 0x80)\n  callvalue\n  dup1\n  iszero\n  tag_1\n  jumpi\n  0x00\n  dup1\n  revert\ntag_1:\n  pop\n  dataSize(sub_0)\n  dup1\n  dataOffset(sub_0)\n  0x00\n  codecopy\n  0x00\n  return\nstop\n\nsub_0: assembly {\n        /* \"Election.sol\":109:1418  contract Election{... */\n      mstore(0x40, 0x80)\n      callvalue\n      dup1\n      iszero\n      tag_1\n      jumpi\n      0x00\n      dup1\n      revert\n    tag_1:\n      pop\n      jumpi(tag_2, lt(calldatasize, 0x04))\n      shr(0xe0, calldataload(0x00))\n      dup1\n      0x85e8e7a7\n      gt\n      tag_13\n      jumpi\n      dup1\n      0x85e8e7a7\n      eq\n      tag_8\n      jumpi\n      dup1\n      0x8da5cb5b\n      eq\n      tag_9\n      jumpi\n      dup1\n      0xa3ec138d\n      eq\n      tag_10\n      jumpi\n      dup1\n      0xf544bed8\n      eq\n      tag_11\n      jumpi\n      dup1\n      0xfd47b368\n      eq\n      tag_12\n      jumpi\n      jump(tag_2)\n    tag_13:\n      dup1\n      0x0121b93f\n      eq\n      tag_3\n      jumpi\n      dup1\n      0x0d15fd77\n      eq\n      tag_4\n      jumpi\n      dup1\n      0x3477ee2e\n      eq\n      tag_5\n      jumpi\n      dup1\n      0x462e91ec\n      eq\n      tag_6\n      jumpi\n      dup1\n      0x5c06b06e\n      eq\n      tag_7\n      jumpi\n    tag_2:\n      0x00\n      dup1\n      revert\n        /* \"Election.sol\":1103:1413  function vote(uint candidateIndex) public {... */\n    tag_3:\n      tag_14\n      0x04\n      dup1\n      calldatasize\n      sub\n      dup2\n      add\n      swap1\n      tag_15\n      swap2\n      swap1\n      tag_16\n      jump\t// in\n    tag_15:\n      tag_17\n      jump\t// in\n    tag_14:\n      stop\n        /* \"Election.sol\":474:496  uint public totalVotes */\n    tag_4:\n      tag_18\n      tag_19\n      jump\t// in\n    tag_18:\n      mload(0x40)\n      tag_20\n      swap2\n      swap1\n      tag_21\n      jump\t// in\n    tag_20:\n      mload(0x40)\n      dup1\n      swap2\n      sub\n      swap1\n      return\n        /* \"Election.sol\":438:467  Candidate[] public candidates */\n    tag_5:\n      tag_22\n      0x04\n      dup1\n      calldatasize\n      sub\n      dup2\n      add\n      swap1\n      tag_23\n      swap2\n      swap1\n      tag_16\n      jump\t// in\n    tag_23:\n      tag_24\n      jump\t// in\n    tag_22:\n      mload(0x40)\n      tag_25\n      swap3\n      swap2\n      swap1\n      tag_26\n      jump\t// in\n    tag_25:\n      mload(0x40)\n      dup1\n      swap2\n      sub\n      swap1\n      return\n        /* \"Election.sol\":734:866  function addCandidate(string memory _candidateName)ownerOnly public {... */\n    tag_6:\n      tag_27\n      0x04\n      dup1\n      calldatasize\n      sub\n      dup2\n      add\n      swap1\n      tag_28\n      swap2\n      swap1\n      tag_29\n      jump\t// in\n    tag_28:\n      tag_30\n      jump\t// in\n    tag_27:\n      stop\n        /* \"Election.sol\":998:1095  function getNumCandidates() public view returns (uint){... */\n    tag_7:\n      tag_31\n      tag_32\n      jump\t// in\n    tag_31:\n      mload(0x40)\n      tag_33\n      swap2\n      swap1\n      tag_21\n      jump\t// in\n    tag_33:\n      mload(0x40)\n      dup1\n      swap2\n      sub\n      swap1\n      return\n        /* \"Election.sol\":357:383  string public electionName */\n    tag_8:\n      tag_34\n      tag_35\n      jump\t// in\n    tag_34:\n      mload(0x40)\n      tag_36\n      swap2\n      swap1\n      tag_37\n      jump\t// in\n    tag_36:\n      mload(0x40)\n      dup1\n      swap2\n      sub\n      swap1\n      return\n        /* \"Election.sol\":330:350  address public owner */\n    tag_9:\n      tag_38\n      tag_39\n      jump\t// in\n    tag_38:\n      mload(0x40)\n      tag_40\n      swap2\n      swap1\n      tag_41\n      jump\t// in\n    tag_40:\n      mload(0x40)\n      dup1\n      swap2\n      sub\n      swap1\n      return\n        /* \"Election.sol\":392:431  mapping(address => Voter) public voters */\n    tag_10:\n      tag_42\n      0x04\n      dup1\n      calldatasize\n      sub\n      dup2\n      add\n      swap1\n      tag_43\n      swap2\n      swap1\n      tag_44\n      jump\t// in\n    tag_43:\n      tag_45\n      jump\t// in\n    tag_42:\n      mload(0x40)\n      tag_46\n      swap5\n      swap4\n      swap3\n      swap2\n      swap1\n      tag_47\n      jump\t// in\n    tag_46:\n      mload(0x40)\n      dup1\n      swap2\n      sub\n      swap1\n      return\n        /* \"Election.sol\":592:726  function startElection(string memory _electionName) public{... */\n    tag_11:\n      tag_48\n      0x04\n      dup1\n      calldatasize\n      sub\n      dup2\n      add\n      swap1\n      tag_49\n      swap2\n      swap1\n      tag_29\n      jump\t// in\n    tag_49:\n      tag_50\n      jump\t// in\n    tag_48:\n      stop\n        /* \"Election.sol\":874:988  function authorizeVoter(address _voterAddress) ownerOnly public {... */\n    tag_12:\n      tag_51\n      0x04\n      dup1\n      calldatasize\n      sub\n      dup2\n      add\n      swap1\n      tag_52\n      swap2\n      swap1\n      tag_44\n      jump\t// in\n    tag_52:\n      tag_53\n      jump\t// in\n    tag_51:\n      stop\n        /* \"Election.sol\":1103:1413  function vote(uint candidateIndex) public {... */\n    tag_17:\n        /* \"Election.sol\":1165:1171  voters */\n      0x02\n        /* \"Election.sol\":1165:1183  voters[msg.sender] */\n      0x00\n        /* \"Election.sol\":1172:1182  msg.sender */\n      caller\n        /* \"Election.sol\":1165:1183  voters[msg.sender] */\n      0xffffffffffffffffffffffffffffffffffffffff\n      and\n      0xffffffffffffffffffffffffffffffffffffffff\n      and\n      dup2\n      mstore\n      0x20\n      add\n      swap1\n      dup2\n      mstore\n      0x20\n      add\n      0x00\n      keccak256\n        /* \"Election.sol\":1165:1189  voters[msg.sender].voted */\n      0x03\n      add\n      0x00\n      swap1\n      sload\n      swap1\n      0x0100\n      exp\n      swap1\n      div\n      0xff\n      and\n        /* \"Election.sol\":1164:1189  !voters[msg.sender].voted */\n      iszero\n        /* \"Election.sol\":1156:1190  require(!voters[msg.sender].voted) */\n      tag_55\n      jumpi\n      0x00\n      dup1\n      revert\n    tag_55:\n        /* \"Election.sol\":1209:1215  voters */\n      0x02\n        /* \"Election.sol\":1209:1227  voters[msg.sender] */\n      0x00\n        /* \"Election.sol\":1216:1226  msg.sender */\n      caller\n        /* \"Election.sol\":1209:1227  voters[msg.sender] */\n      0xffffffffffffffffffffffffffffffffffffffff\n      and\n      0xffffffffffffffffffffffffffffffffffffffff\n      and\n      dup2\n      mstore\n      0x20\n      add\n      swap1\n      dup2\n      mstore\n      0x20\n      add\n      0x00\n      keccak256\n        /* \"Election.sol\":1209:1238  voters[msg.sender].authorized */\n      0x01\n      add\n      0x00\n      swap1\n      sload\n      swap1\n      0x0100\n      exp\n      swap1\n      div\n      0xff\n      and\n        /* \"Election.sol\":1201:1239  require(voters[msg.sender].authorized) */\n      tag_56\n      jumpi\n      0x00\n      dup1\n      revert\n    tag_56:\n        /* \"Election.sol\":1276:1290  candidateIndex */\n      dup1\n        /* \"Election.sol\":1250:1256  voters */\n      0x02\n        /* \"Election.sol\":1250:1268  voters[msg.sender] */\n      0x00\n        /* \"Election.sol\":1257:1267  msg.sender */\n      caller\n        /* \"Election.sol\":1250:1268  voters[msg.sender] */\n      0xffffffffffffffffffffffffffffffffffffffff\n      and\n      0xffffffffffffffffffffffffffffffffffffffff\n      and\n      dup2\n      mstore\n      0x20\n      add\n      swap1\n      dup2\n      mstore\n      0x20\n      add\n      0x00\n      keccak256\n        /* \"Election.sol\":1250:1273  voters[msg.sender].whom */\n      0x02\n      add\n        /* \"Election.sol\":1250:1290  voters[msg.sender].whom = candidateIndex */\n      dup2\n      swap1\n      sstore\n      pop\n        /* \"Election.sol\":1328:1332  true */\n      0x01\n        /* \"Election.sol\":1301:1307  voters */\n      0x02\n        /* \"Election.sol\":1301:1319  voters[msg.sender] */\n      0x00\n        /* \"Election.sol\":1308:1318  msg.sender */\n      caller\n        /* \"Election.sol\":1301:1319  voters[msg.sender] */\n      0xffffffffffffffffffffffffffffffffffffffff\n      and\n      0xffffffffffffffffffffffffffffffffffffffff\n      and\n      dup2\n      mstore\n      0x20\n      add\n      swap1\n      dup2\n      mstore\n      0x20\n      add\n      0x00\n      keccak256\n        /* \"Election.sol\":1301:1325  voters[msg.sender].voted */\n      0x03\n      add\n      0x00\n        /* \"Election.sol\":1301:1332  voters[msg.sender].voted = true */\n      0x0100\n      exp\n      dup2\n      sload\n      dup2\n      0xff\n      mul\n      not\n      and\n      swap1\n      dup4\n      iszero\n      iszero\n      mul\n      or\n      swap1\n      sstore\n      pop\n        /* \"Election.sol\":1345:1355  candidates */\n      0x03\n        /* \"Election.sol\":1356:1370  candidateIndex */\n      dup2\n        /* \"Election.sol\":1345:1371  candidates[candidateIndex] */\n      dup2\n      sload\n      dup2\n      lt\n      tag_57\n      jumpi\n      tag_58\n      tag_59\n      jump\t// in\n    tag_58:\n    tag_57:\n      swap1\n      0x00\n      mstore\n      keccak256(0x00, 0x20)\n      swap1\n      0x02\n      mul\n      add\n        /* \"Election.sol\":1345:1380  candidates[candidateIndex].numVotes */\n      0x01\n      add\n      0x00\n        /* \"Election.sol\":1345:1382  candidates[candidateIndex].numVotes++ */\n      dup2\n      sload\n      dup1\n      swap3\n      swap2\n      swap1\n      tag_61\n      swap1\n      tag_62\n      jump\t// in\n    tag_61:\n      swap2\n      swap1\n      pop\n      sstore\n      pop\n        /* \"Election.sol\":1393:1403  totalVotes */\n      0x04\n      0x00\n        /* \"Election.sol\":1393:1405  totalVotes++ */\n      dup2\n      sload\n      dup1\n      swap3\n      swap2\n      swap1\n      tag_63\n      swap1\n      tag_62\n      jump\t// in\n    tag_63:\n      swap2\n      swap1\n      pop\n      sstore\n      pop\n        /* \"Election.sol\":1103:1413  function vote(uint candidateIndex) public {... */\n      pop\n      jump\t// out\n        /* \"Election.sol\":474:496  uint public totalVotes */\n    tag_19:\n      sload(0x04)\n      dup2\n      jump\t// out\n        /* \"Election.sol\":438:467  Candidate[] public candidates */\n    tag_24:\n      0x03\n      dup2\n      dup2\n      sload\n      dup2\n      lt\n      tag_64\n      jumpi\n      0x00\n      dup1\n      revert\n    tag_64:\n      swap1\n      0x00\n      mstore\n      keccak256(0x00, 0x20)\n      swap1\n      0x02\n      mul\n      add\n      0x00\n      swap2\n      pop\n      swap1\n      pop\n      dup1\n      0x00\n      add\n      dup1\n      sload\n      tag_66\n      swap1\n      tag_67\n      jump\t// in\n    tag_66:\n      dup1\n      0x1f\n      add\n      0x20\n      dup1\n      swap2\n      div\n      mul\n      0x20\n      add\n      mload(0x40)\n      swap1\n      dup2\n      add\n      0x40\n      mstore\n      dup1\n      swap3\n      swap2\n      swap1\n      dup2\n      dup2\n      mstore\n      0x20\n      add\n      dup3\n      dup1\n      sload\n      tag_68\n      swap1\n      tag_67\n      jump\t// in\n    tag_68:\n      dup1\n      iszero\n      tag_69\n      jumpi\n      dup1\n      0x1f\n      lt\n      tag_70\n      jumpi\n      0x0100\n      dup1\n      dup4\n      sload\n      div\n      mul\n      dup4\n      mstore\n      swap2\n      0x20\n      add\n      swap2\n      jump(tag_69)\n    tag_70:\n      dup3\n      add\n      swap2\n      swap1\n      0x00\n      mstore\n      keccak256(0x00, 0x20)\n      swap1\n    tag_71:\n      dup2\n      sload\n      dup2\n      mstore\n      swap1\n      0x01\n      add\n      swap1\n      0x20\n      add\n      dup1\n      dup4\n      gt\n      tag_71\n      jumpi\n      dup3\n      swap1\n      sub\n      0x1f\n      and\n      dup3\n      add\n      swap2\n    tag_69:\n      pop\n      pop\n      pop\n      pop\n      pop\n      swap1\n      dup1\n      0x01\n      add\n      sload\n      swap1\n      pop\n      dup3\n      jump\t// out\n        /* \"Election.sol\":734:866  function addCandidate(string memory _candidateName)ownerOnly public {... */\n    tag_30:\n        /* \"Election.sol\":558:563  owner */\n      0x00\n      dup1\n      sload\n      swap1\n      0x0100\n      exp\n      swap1\n      div\n      0xffffffffffffffffffffffffffffffffffffffff\n      and\n        /* \"Election.sol\":544:563  msg.sender == owner */\n      0xffffffffffffffffffffffffffffffffffffffff\n      and\n        /* \"Election.sol\":544:554  msg.sender */\n      caller\n        /* \"Election.sol\":544:563  msg.sender == owner */\n      0xffffffffffffffffffffffffffffffffffffffff\n      and\n      eq\n        /* \"Election.sol\":536:564  require(msg.sender == owner) */\n      tag_73\n      jumpi\n      0x00\n      dup1\n      revert\n    tag_73:\n        /* \"Election.sol\":813:823  candidates */\n      0x03\n        /* \"Election.sol\":829:857  Candidate(_candidateName, 0) */\n      mload(0x40)\n      dup1\n      0x40\n      add\n      0x40\n      mstore\n      dup1\n        /* \"Election.sol\":839:853  _candidateName */\n      dup4\n        /* \"Election.sol\":829:857  Candidate(_candidateName, 0) */\n      dup2\n      mstore\n      0x20\n      add\n        /* \"Election.sol\":855:856  0 */\n      0x00\n        /* \"Election.sol\":829:857  Candidate(_candidateName, 0) */\n      dup2\n      mstore\n      pop\n        /* \"Election.sol\":813:858  candidates.push(Candidate(_candidateName, 0)) */\n      swap1\n      dup1\n      0x01\n      dup2\n      sload\n      add\n      dup1\n      dup3\n      sstore\n      dup1\n      swap2\n      pop\n      pop\n      0x01\n      swap1\n      sub\n      swap1\n      0x00\n      mstore\n      keccak256(0x00, 0x20)\n      swap1\n      0x02\n      mul\n      add\n      0x00\n      swap1\n      swap2\n      swap1\n      swap2\n      swap1\n      swap2\n      pop\n      0x00\n      dup3\n      add\n      mload\n      dup2\n      0x00\n      add\n      swap1\n      dup2\n      tag_76\n      swap2\n      swap1\n      tag_77\n      jump\t// in\n    tag_76:\n      pop\n      0x20\n      dup3\n      add\n      mload\n      dup2\n      0x01\n      add\n      sstore\n      pop\n      pop\n        /* \"Election.sol\":734:866  function addCandidate(string memory _candidateName)ownerOnly public {... */\n      pop\n      jump\t// out\n        /* \"Election.sol\":998:1095  function getNumCandidates() public view returns (uint){... */\n    tag_32:\n        /* \"Election.sol\":1047:1051  uint */\n      0x00\n        /* \"Election.sol\":1070:1080  candidates */\n      0x03\n        /* \"Election.sol\":1070:1087  candidates.length */\n      dup1\n      sload\n      swap1\n      pop\n        /* \"Election.sol\":1063:1087  return candidates.length */\n      swap1\n      pop\n        /* \"Election.sol\":998:1095  function getNumCandidates() public view returns (uint){... */\n      swap1\n      jump\t// out\n        /* \"Election.sol\":357:383  string public electionName */\n    tag_35:\n      0x01\n      dup1\n      sload\n      tag_79\n      swap1\n      tag_67\n      jump\t// in\n    tag_79:\n      dup1\n      0x1f\n      add\n      0x20\n      dup1\n      swap2\n      div\n      mul\n      0x20\n      add\n      mload(0x40)\n      swap1\n      dup2\n      add\n      0x40\n      mstore\n      dup1\n      swap3\n      swap2\n      swap1\n      dup2\n      dup2\n      mstore\n      0x20\n      add\n      dup3\n      dup1\n      sload\n      tag_80\n      swap1\n      tag_67\n      jump\t// in\n    tag_80:\n      dup1\n      iszero\n      tag_81\n      jumpi\n      dup1\n      0x1f\n      lt\n      tag_82\n      jumpi\n      0x0100\n      dup1\n      dup4\n      sload\n      div\n      mul\n      dup4\n      mstore\n      swap2\n      0x20\n      add\n      swap2\n      jump(tag_81)\n    tag_82:\n      dup3\n      add\n      swap2\n      swap1\n      0x00\n      mstore\n      keccak256(0x00, 0x20)\n      swap1\n    tag_83:\n      dup2\n      sload\n      dup2\n      mstore\n      swap1\n      0x01\n      add\n      swap1\n      0x20\n      add\n      dup1\n      dup4\n      gt\n      tag_83\n      jumpi\n      dup3\n      swap1\n      sub\n      0x1f\n      and\n      dup3\n      add\n      swap2\n    tag_81:\n      pop\n      pop\n      pop\n      pop\n      pop\n      dup2\n      jump\t// out\n        /* \"Election.sol\":330:350  address public owner */\n    tag_39:\n      0x00\n      dup1\n      sload\n      swap1\n      0x0100\n      exp\n      swap1\n      div\n      0xffffffffffffffffffffffffffffffffffffffff\n      and\n      dup2\n      jump\t// out\n        /* \"Election.sol\":392:431  mapping(address => Voter) public voters */\n    tag_45:\n      mstore(0x20, 0x02)\n      dup1\n      0x00\n      mstore\n      keccak256(0x00, 0x40)\n      0x00\n      swap2\n      pop\n      swap1\n      pop\n      dup1\n      0x00\n      add\n      dup1\n      sload\n      tag_84\n      swap1\n      tag_67\n      jump\t// in\n    tag_84:\n      dup1\n      0x1f\n      add\n      0x20\n      dup1\n      swap2\n      div\n      mul\n      0x20\n      add\n      mload(0x40)\n      swap1\n      dup2\n      add\n      0x40\n      mstore\n      dup1\n      swap3\n      swap2\n      swap1\n      dup2\n      dup2\n      mstore\n      0x20\n      add\n      dup3\n      dup1\n      sload\n      tag_85\n      swap1\n      tag_67\n      jump\t// in\n    tag_85:\n      dup1\n      iszero\n      tag_86\n      jumpi\n      dup1\n      0x1f\n      lt\n      tag_87\n      jumpi\n      0x0100\n      dup1\n      dup4\n      sload\n      div\n      mul\n      dup4\n      mstore\n      swap2\n      0x20\n      add\n      swap2\n      jump(tag_86)\n    tag_87:\n      dup3\n      add\n      swap2\n      swap1\n      0x00\n      mstore\n      keccak256(0x00, 0x20)\n      swap1\n    tag_88:\n      dup2\n      sload\n      dup2\n      mstore\n      swap1\n      0x01\n      add\n      swap1\n      0x20\n      add\n      dup1\n      dup4\n      gt\n      tag_88\n      jumpi\n      dup3\n      swap1\n      sub\n      0x1f\n      and\n      dup3\n      add\n      swap2\n    tag_86:\n      pop\n      pop\n      pop\n      pop\n      pop\n      swap1\n      dup1\n      0x01\n      add\n      0x00\n      swap1\n      sload\n      swap1\n      0x0100\n      exp\n      swap1\n      div\n      0xff\n      and\n      swap1\n      dup1\n      0x02\n      add\n      sload\n      swap1\n      dup1\n      0x03\n      add\n      0x00\n      swap1\n      sload\n      swap1\n      0x0100\n      exp\n      swap1\n      div\n      0xff\n      and\n      swap1\n      pop\n      dup5\n      jump\t// out\n        /* \"Election.sol\":592:726  function startElection(string memory _electionName) public{... */\n    tag_50:\n        /* \"Election.sol\":669:679  msg.sender */\n      caller\n        /* \"Election.sol\":661:666  owner */\n      0x00\n      dup1\n        /* \"Election.sol\":661:679  owner = msg.sender */\n      0x0100\n      exp\n      dup2\n      sload\n      dup2\n      0xffffffffffffffffffffffffffffffffffffffff\n      mul\n      not\n      and\n      swap1\n      dup4\n      0xffffffffffffffffffffffffffffffffffffffff\n      and\n      mul\n      or\n      swap1\n      sstore\n      pop\n        /* \"Election.sol\":705:718  _electionName */\n      dup1\n        /* \"Election.sol\":690:702  electionName */\n      0x01\n        /* \"Election.sol\":690:718  electionName = _electionName */\n      swap1\n      dup2\n      tag_90\n      swap2\n      swap1\n      tag_77\n      jump\t// in\n    tag_90:\n      pop\n        /* \"Election.sol\":592:726  function startElection(string memory _electionName) public{... */\n      pop\n      jump\t// out\n        /* \"Election.sol\":874:988  function authorizeVoter(address _voterAddress) ownerOnly public {... */\n    tag_53:\n        /* \"Election.sol\":558:563  owner */\n      0x00\n      dup1\n      sload\n      swap1\n      0x0100\n      exp\n      swap1\n      div\n      0xffffffffffffffffffffffffffffffffffffffff\n      and\n        /* \"Election.sol\":544:563  msg.sender == owner */\n      0xffffffffffffffffffffffffffffffffffffffff\n      and\n        /* \"Election.sol\":544:554  msg.sender */\n      caller\n        /* \"Election.sol\":544:563  msg.sender == owner */\n      0xffffffffffffffffffffffffffffffffffffffff\n      and\n      eq\n        /* \"Election.sol\":536:564  require(msg.sender == owner) */\n      tag_92\n      jumpi\n      0x00\n      dup1\n      revert\n    tag_92:\n        /* \"Election.sol\":980:984  true */\n      0x01\n        /* \"Election.sol\":945:951  voters */\n      0x02\n        /* \"Election.sol\":945:966  voters[_voterAddress] */\n      0x00\n        /* \"Election.sol\":952:965  _voterAddress */\n      dup4\n        /* \"Election.sol\":945:966  voters[_voterAddress] */\n      0xffffffffffffffffffffffffffffffffffffffff\n      and\n      0xffffffffffffffffffffffffffffffffffffffff\n      and\n      dup2\n      mstore\n      0x20\n      add\n      swap1\n      dup2\n      mstore\n      0x20\n      add\n      0x00\n      keccak256\n        /* \"Election.sol\":945:977  voters[_voterAddress].authorized */\n      0x01\n      add\n      0x00\n        /* \"Election.sol\":945:984  voters[_voterAddress].authorized = true */\n      0x0100\n      exp\n      dup2\n      sload\n      dup2\n      0xff\n      mul\n      not\n      and\n      swap1\n      dup4\n      iszero\n      iszero\n      mul\n      or\n      swap1\n      sstore\n      pop\n        /* \"Election.sol\":874:988  function authorizeVoter(address _voterAddress) ownerOnly public {... */\n      pop\n      jump\t// out\n        /* \"#utility.yul\":7:82   */\n    tag_94:\n        /* \"#utility.yul\":40:46   */\n      0x00\n        /* \"#utility.yul\":73:75   */\n      0x40\n        /* \"#utility.yul\":67:76   */\n      mload\n        /* \"#utility.yul\":57:76   */\n      swap1\n      pop\n        /* \"#utility.yul\":7:82   */\n      swap1\n      jump\t// out\n        /* \"#utility.yul\":88:205   */\n    tag_95:\n        /* \"#utility.yul\":197:198   */\n      0x00\n        /* \"#utility.yul\":194:195   */\n      dup1\n        /* \"#utility.yul\":187:199   */\n      revert\n        /* \"#utility.yul\":211:328   */\n    tag_96:\n        /* \"#utility.yul\":320:321   */\n      0x00\n        /* \"#utility.yul\":317:318   */\n      dup1\n        /* \"#utility.yul\":310:322   */\n      revert\n        /* \"#utility.yul\":334:411   */\n    tag_97:\n        /* \"#utility.yul\":371:378   */\n      0x00\n        /* \"#utility.yul\":400:405   */\n      dup2\n        /* \"#utility.yul\":389:405   */\n      swap1\n      pop\n        /* \"#utility.yul\":334:411   */\n      swap2\n      swap1\n      pop\n      jump\t// out\n        /* \"#utility.yul\":417:539   */\n    tag_98:\n        /* \"#utility.yul\":490:514   */\n      tag_145\n        /* \"#utility.yul\":508:513   */\n      dup2\n        /* \"#utility.yul\":490:514   */\n      tag_97\n      jump\t// in\n    tag_145:\n        /* \"#utility.yul\":483:488   */\n      dup2\n        /* \"#utility.yul\":480:515   */\n      eq\n        /* \"#utility.yul\":470:533   */\n      tag_146\n      jumpi\n        /* \"#utility.yul\":529:530   */\n      0x00\n        /* \"#utility.yul\":526:527   */\n      dup1\n        /* \"#utility.yul\":519:531   */\n      revert\n        /* \"#utility.yul\":470:533   */\n    tag_146:\n        /* \"#utility.yul\":417:539   */\n      pop\n      jump\t// out\n        /* \"#utility.yul\":545:684   */\n    tag_99:\n        /* \"#utility.yul\":591:596   */\n      0x00\n        /* \"#utility.yul\":629:635   */\n      dup2\n        /* \"#utility.yul\":616:636   */\n      calldataload\n        /* \"#utility.yul\":607:636   */\n      swap1\n      pop\n        /* \"#utility.yul\":645:678   */\n      tag_148\n        /* \"#utility.yul\":672:677   */\n      dup2\n        /* \"#utility.yul\":645:678   */\n      tag_98\n      jump\t// in\n    tag_148:\n        /* \"#utility.yul\":545:684   */\n      swap3\n      swap2\n      pop\n      pop\n      jump\t// out\n        /* \"#utility.yul\":690:1019   */\n    tag_16:\n        /* \"#utility.yul\":749:755   */\n      0x00\n        /* \"#utility.yul\":798:800   */\n      0x20\n        /* \"#utility.yul\":786:795   */\n      dup3\n        /* \"#utility.yul\":777:784   */\n      dup5\n        /* \"#utility.yul\":773:796   */\n      sub\n        /* \"#utility.yul\":769:801   */\n      slt\n        /* \"#utility.yul\":766:885   */\n      iszero\n      tag_150\n      jumpi\n        /* \"#utility.yul\":804:883   */\n      tag_151\n      tag_95\n      jump\t// in\n    tag_151:\n        /* \"#utility.yul\":766:885   */\n    tag_150:\n        /* \"#utility.yul\":924:925   */\n      0x00\n        /* \"#utility.yul\":949:1002   */\n      tag_152\n        /* \"#utility.yul\":994:1001   */\n      dup5\n        /* \"#utility.yul\":985:991   */\n      dup3\n        /* \"#utility.yul\":974:983   */\n      dup6\n        /* \"#utility.yul\":970:992   */\n      add\n        /* \"#utility.yul\":949:1002   */\n      tag_99\n      jump\t// in\n    tag_152:\n        /* \"#utility.yul\":939:1002   */\n      swap2\n      pop\n        /* \"#utility.yul\":895:1012   */\n      pop\n        /* \"#utility.yul\":690:1019   */\n      swap3\n      swap2\n      pop\n      pop\n      jump\t// out\n        /* \"#utility.yul\":1025:1143   */\n    tag_100:\n        /* \"#utility.yul\":1112:1136   */\n      tag_154\n        /* \"#utility.yul\":1130:1135   */\n      dup2\n        /* \"#utility.yul\":1112:1136   */\n      tag_97\n      jump\t// in\n    tag_154:\n        /* \"#utility.yul\":1107:1110   */\n      dup3\n        /* \"#utility.yul\":1100:1137   */\n      mstore\n        /* \"#utility.yul\":1025:1143   */\n      pop\n      pop\n      jump\t// out\n        /* \"#utility.yul\":1149:1371   */\n    tag_21:\n        /* \"#utility.yul\":1242:1246   */\n      0x00\n        /* \"#utility.yul\":1280:1282   */\n      0x20\n        /* \"#utility.yul\":1269:1278   */\n      dup3\n        /* \"#utility.yul\":1265:1283   */\n      add\n        /* \"#utility.yul\":1257:1283   */\n      swap1\n      pop\n        /* \"#utility.yul\":1293:1364   */\n      tag_156\n        /* \"#utility.yul\":1361:1362   */\n      0x00\n        /* \"#utility.yul\":1350:1359   */\n      dup4\n        /* \"#utility.yul\":1346:1363   */\n      add\n        /* \"#utility.yul\":1337:1343   */\n      dup5\n        /* \"#utility.yul\":1293:1364   */\n      tag_100\n      jump\t// in\n    tag_156:\n        /* \"#utility.yul\":1149:1371   */\n      swap3\n      swap2\n      pop\n      pop\n      jump\t// out\n        /* \"#utility.yul\":1377:1476   */\n    tag_101:\n        /* \"#utility.yul\":1429:1435   */\n      0x00\n        /* \"#utility.yul\":1463:1468   */\n      dup2\n        /* \"#utility.yul\":1457:1469   */\n      mload\n        /* \"#utility.yul\":1447:1469   */\n      swap1\n      pop\n        /* \"#utility.yul\":1377:1476   */\n      swap2\n      swap1\n      pop\n      jump\t// out\n        /* \"#utility.yul\":1482:1651   */\n    tag_102:\n        /* \"#utility.yul\":1566:1577   */\n      0x00\n        /* \"#utility.yul\":1600:1606   */\n      dup3\n        /* \"#utility.yul\":1595:1598   */\n      dup3\n        /* \"#utility.yul\":1588:1607   */\n      mstore\n        /* \"#utility.yul\":1640:1644   */\n      0x20\n        /* \"#utility.yul\":1635:1638   */\n      dup3\n        /* \"#utility.yul\":1631:1645   */\n      add\n        /* \"#utility.yul\":1616:1645   */\n      swap1\n      pop\n        /* \"#utility.yul\":1482:1651   */\n      swap3\n      swap2\n      pop\n      pop\n      jump\t// out\n        /* \"#utility.yul\":1657:1796   */\n    tag_103:\n        /* \"#utility.yul\":1746:1752   */\n      dup3\n        /* \"#utility.yul\":1741:1744   */\n      dup2\n        /* \"#utility.yul\":1736:1739   */\n      dup4\n        /* \"#utility.yul\":1730:1753   */\n      mcopy\n        /* \"#utility.yul\":1787:1788   */\n      0x00\n        /* \"#utility.yul\":1778:1784   */\n      dup4\n        /* \"#utility.yul\":1773:1776   */\n      dup4\n        /* \"#utility.yul\":1769:1785   */\n      add\n        /* \"#utility.yul\":1762:1789   */\n      mstore\n        /* \"#utility.yul\":1657:1796   */\n      pop\n      pop\n      pop\n      jump\t// out\n        /* \"#utility.yul\":1802:1904   */\n    tag_104:\n        /* \"#utility.yul\":1843:1849   */\n      0x00\n        /* \"#utility.yul\":1894:1896   */\n      0x1f\n        /* \"#utility.yul\":1890:1897   */\n      not\n        /* \"#utility.yul\":1885:1887   */\n      0x1f\n        /* \"#utility.yul\":1878:1883   */\n      dup4\n        /* \"#utility.yul\":1874:1888   */\n      add\n        /* \"#utility.yul\":1870:1898   */\n      and\n        /* \"#utility.yul\":1860:1898   */\n      swap1\n      pop\n        /* \"#utility.yul\":1802:1904   */\n      swap2\n      swap1\n      pop\n      jump\t// out\n        /* \"#utility.yul\":1910:2287   */\n    tag_105:\n        /* \"#utility.yul\":1998:2001   */\n      0x00\n        /* \"#utility.yul\":2026:2065   */\n      tag_162\n        /* \"#utility.yul\":2059:2064   */\n      dup3\n        /* \"#utility.yul\":2026:2065   */\n      tag_101\n      jump\t// in\n    tag_162:\n        /* \"#utility.yul\":2081:2152   */\n      tag_163\n        /* \"#utility.yul\":2145:2151   */\n      dup2\n        /* \"#utility.yul\":2140:2143   */\n      dup6\n        /* \"#utility.yul\":2081:2152   */\n      tag_102\n      jump\t// in\n    tag_163:\n        /* \"#utility.yul\":2074:2152   */\n      swap4\n      pop\n        /* \"#utility.yul\":2161:2226   */\n      tag_164\n        /* \"#utility.yul\":2219:2225   */\n      dup2\n        /* \"#utility.yul\":2214:2217   */\n      dup6\n        /* \"#utility.yul\":2207:2211   */\n      0x20\n        /* \"#utility.yul\":2200:2205   */\n      dup7\n        /* \"#utility.yul\":2196:2212   */\n      add\n        /* \"#utility.yul\":2161:2226   */\n      tag_103\n      jump\t// in\n    tag_164:\n        /* \"#utility.yul\":2251:2280   */\n      tag_165\n        /* \"#utility.yul\":2273:2279   */\n      dup2\n        /* \"#utility.yul\":2251:2280   */\n      tag_104\n      jump\t// in\n    tag_165:\n        /* \"#utility.yul\":2246:2249   */\n      dup5\n        /* \"#utility.yul\":2242:2281   */\n      add\n        /* \"#utility.yul\":2235:2281   */\n      swap2\n      pop\n        /* \"#utility.yul\":2002:2287   */\n      pop\n        /* \"#utility.yul\":1910:2287   */\n      swap3\n      swap2\n      pop\n      pop\n      jump\t// out\n        /* \"#utility.yul\":2293:2716   */\n    tag_26:\n        /* \"#utility.yul\":2434:2438   */\n      0x00\n        /* \"#utility.yul\":2472:2474   */\n      0x40\n        /* \"#utility.yul\":2461:2470   */\n      dup3\n        /* \"#utility.yul\":2457:2475   */\n      add\n        /* \"#utility.yul\":2449:2475   */\n      swap1\n      pop\n        /* \"#utility.yul\":2521:2530   */\n      dup2\n        /* \"#utility.yul\":2515:2519   */\n      dup2\n        /* \"#utility.yul\":2511:2531   */\n      sub\n        /* \"#utility.yul\":2507:2508   */\n      0x00\n        /* \"#utility.yul\":2496:2505   */\n      dup4\n        /* \"#utility.yul\":2492:2509   */\n      add\n        /* \"#utility.yul\":2485:2532   */\n      mstore\n        /* \"#utility.yul\":2549:2627   */\n      tag_167\n        /* \"#utility.yul\":2622:2626   */\n      dup2\n        /* \"#utility.yul\":2613:2619   */\n      dup6\n        /* \"#utility.yul\":2549:2627   */\n      tag_105\n      jump\t// in\n    tag_167:\n        /* \"#utility.yul\":2541:2627   */\n      swap1\n      pop\n        /* \"#utility.yul\":2637:2709   */\n      tag_168\n        /* \"#utility.yul\":2705:2707   */\n      0x20\n        /* \"#utility.yul\":2694:2703   */\n      dup4\n        /* \"#utility.yul\":2690:2708   */\n      add\n        /* \"#utility.yul\":2681:2687   */\n      dup5\n        /* \"#utility.yul\":2637:2709   */\n      tag_100\n      jump\t// in\n    tag_168:\n        /* \"#utility.yul\":2293:2716   */\n      swap4\n      swap3\n      pop\n      pop\n      pop\n      jump\t// out\n        /* \"#utility.yul\":2722:2839   */\n    tag_106:\n        /* \"#utility.yul\":2831:2832   */\n      0x00\n        /* \"#utility.yul\":2828:2829   */\n      dup1\n        /* \"#utility.yul\":2821:2833   */\n      revert\n        /* \"#utility.yul\":2845:2962   */\n    tag_107:\n        /* \"#utility.yul\":2954:2955   */\n      0x00\n        /* \"#utility.yul\":2951:2952   */\n      dup1\n        /* \"#utility.yul\":2944:2956   */\n      revert\n        /* \"#utility.yul\":2968:3148   */\n    tag_108:\n        /* \"#utility.yul\":3016:3093   */\n      0x4e487b7100000000000000000000000000000000000000000000000000000000\n        /* \"#utility.yul\":3013:3014   */\n      0x00\n        /* \"#utility.yul\":3006:3094   */\n      mstore\n        /* \"#utility.yul\":3113:3117   */\n      0x41\n        /* \"#utility.yul\":3110:3111   */\n      0x04\n        /* \"#utility.yul\":3103:3118   */\n      mstore\n        /* \"#utility.yul\":3137:3141   */\n      0x24\n        /* \"#utility.yul\":3134:3135   */\n      0x00\n        /* \"#utility.yul\":3127:3142   */\n      revert\n        /* \"#utility.yul\":3154:3435   */\n    tag_109:\n        /* \"#utility.yul\":3237:3264   */\n      tag_173\n        /* \"#utility.yul\":3259:3263   */\n      dup3\n        /* \"#utility.yul\":3237:3264   */\n      tag_104\n      jump\t// in\n    tag_173:\n        /* \"#utility.yul\":3229:3235   */\n      dup2\n        /* \"#utility.yul\":3225:3265   */\n      add\n        /* \"#utility.yul\":3367:3373   */\n      dup2\n        /* \"#utility.yul\":3355:3365   */\n      dup2\n        /* \"#utility.yul\":3352:3374   */\n      lt\n        /* \"#utility.yul\":3331:3349   */\n      0xffffffffffffffff\n        /* \"#utility.yul\":3319:3329   */\n      dup3\n        /* \"#utility.yul\":3316:3350   */\n      gt\n        /* \"#utility.yul\":3313:3375   */\n      or\n        /* \"#utility.yul\":3310:3398   */\n      iszero\n      tag_174\n      jumpi\n        /* \"#utility.yul\":3378:3396   */\n      tag_175\n      tag_108\n      jump\t// in\n    tag_175:\n        /* \"#utility.yul\":3310:3398   */\n    tag_174:\n        /* \"#utility.yul\":3418:3428   */\n      dup1\n        /* \"#utility.yul\":3414:3416   */\n      0x40\n        /* \"#utility.yul\":3407:3429   */\n      mstore\n        /* \"#utility.yul\":3197:3435   */\n      pop\n        /* \"#utility.yul\":3154:3435   */\n      pop\n      pop\n      jump\t// out\n        /* \"#utility.yul\":3441:3570   */\n    tag_110:\n        /* \"#utility.yul\":3475:3481   */\n      0x00\n        /* \"#utility.yul\":3502:3522   */\n      tag_177\n      tag_94\n      jump\t// in\n    tag_177:\n        /* \"#utility.yul\":3492:3522   */\n      swap1\n      pop\n        /* \"#utility.yul\":3531:3564   */\n      tag_178\n        /* \"#utility.yul\":3559:3563   */\n      dup3\n        /* \"#utility.yul\":3551:3557   */\n      dup3\n        /* \"#utility.yul\":3531:3564   */\n      tag_109\n      jump\t// in\n    tag_178:\n        /* \"#utility.yul\":3441:3570   */\n      swap2\n      swap1\n      pop\n      jump\t// out\n        /* \"#utility.yul\":3576:3884   */\n    tag_111:\n        /* \"#utility.yul\":3638:3642   */\n      0x00\n        /* \"#utility.yul\":3728:3746   */\n      0xffffffffffffffff\n        /* \"#utility.yul\":3720:3726   */\n      dup3\n        /* \"#utility.yul\":3717:3747   */\n      gt\n        /* \"#utility.yul\":3714:3770   */\n      iszero\n      tag_180\n      jumpi\n        /* \"#utility.yul\":3750:3768   */\n      tag_181\n      tag_108\n      jump\t// in\n    tag_181:\n        /* \"#utility.yul\":3714:3770   */\n    tag_180:\n        /* \"#utility.yul\":3788:3817   */\n      tag_182\n        /* \"#utility.yul\":3810:3816   */\n      dup3\n        /* \"#utility.yul\":3788:3817   */\n      tag_104\n      jump\t// in\n    tag_182:\n        /* \"#utility.yul\":3780:3817   */\n      swap1\n      pop\n        /* \"#utility.yul\":3872:3876   */\n      0x20\n        /* \"#utility.yul\":3866:3870   */\n      dup2\n        /* \"#utility.yul\":3862:3877   */\n      add\n        /* \"#utility.yul\":3854:3877   */\n      swap1\n      pop\n        /* \"#utility.yul\":3576:3884   */\n      swap2\n      swap1\n      pop\n      jump\t// out\n        /* \"#utility.yul\":3890:4038   */\n    tag_112:\n        /* \"#utility.yul\":3988:3994   */\n      dup3\n        /* \"#utility.yul\":3983:3986   */\n      dup2\n        /* \"#utility.yul\":3978:3981   */\n      dup4\n        /* \"#utility.yul\":3965:3995   */\n      calldatacopy\n        /* \"#utility.yul\":4029:4030   */\n      0x00\n        /* \"#utility.yul\":4020:4026   */\n      dup4\n        /* \"#utility.yul\":4015:4018   */\n      dup4\n        /* \"#utility.yul\":4011:4027   */\n      add\n        /* \"#utility.yul\":4004:4031   */\n      mstore\n        /* \"#utility.yul\":3890:4038   */\n      pop\n      pop\n      pop\n      jump\t// out\n        /* \"#utility.yul\":4044:4469   */\n    tag_113:\n        /* \"#utility.yul\":4122:4127   */\n      0x00\n        /* \"#utility.yul\":4147:4213   */\n      tag_185\n        /* \"#utility.yul\":4163:4212   */\n      tag_186\n        /* \"#utility.yul\":4205:4211   */\n      dup5\n        /* \"#utility.yul\":4163:4212   */\n      tag_111\n      jump\t// in\n    tag_186:\n        /* \"#utility.yul\":4147:4213   */\n      tag_110\n      jump\t// in\n    tag_185:\n        /* \"#utility.yul\":4138:4213   */\n      swap1\n      pop\n        /* \"#utility.yul\":4236:4242   */\n      dup3\n        /* \"#utility.yul\":4229:4234   */\n      dup2\n        /* \"#utility.yul\":4222:4243   */\n      mstore\n        /* \"#utility.yul\":4274:4278   */\n      0x20\n        /* \"#utility.yul\":4267:4272   */\n      dup2\n        /* \"#utility.yul\":4263:4279   */\n      add\n        /* \"#utility.yul\":4312:4315   */\n      dup5\n        /* \"#utility.yul\":4303:4309   */\n      dup5\n        /* \"#utility.yul\":4298:4301   */\n      dup5\n        /* \"#utility.yul\":4294:4310   */\n      add\n        /* \"#utility.yul\":4291:4316   */\n      gt\n        /* \"#utility.yul\":4288:4400   */\n      iszero\n      tag_187\n      jumpi\n        /* \"#utility.yul\":4319:4398   */\n      tag_188\n      tag_107\n      jump\t// in\n    tag_188:\n        /* \"#utility.yul\":4288:4400   */\n    tag_187:\n        /* \"#utility.yul\":4409:4463   */\n      tag_189\n        /* \"#utility.yul\":4456:4462   */\n      dup5\n        /* \"#utility.yul\":4451:4454   */\n      dup3\n        /* \"#utility.yul\":4446:4449   */\n      dup6\n        /* \"#utility.yul\":4409:4463   */\n      tag_112\n      jump\t// in\n    tag_189:\n        /* \"#utility.yul\":4128:4469   */\n      pop\n        /* \"#utility.yul\":4044:4469   */\n      swap4\n      swap3\n      pop\n      pop\n      pop\n      jump\t// out\n        /* \"#utility.yul\":4489:4829   */\n    tag_114:\n        /* \"#utility.yul\":4545:4550   */\n      0x00\n        /* \"#utility.yul\":4594:4597   */\n      dup3\n        /* \"#utility.yul\":4587:4591   */\n      0x1f\n        /* \"#utility.yul\":4579:4585   */\n      dup4\n        /* \"#utility.yul\":4575:4592   */\n      add\n        /* \"#utility.yul\":4571:4598   */\n      slt\n        /* \"#utility.yul\":4561:4683   */\n      tag_191\n      jumpi\n        /* \"#utility.yul\":4602:4681   */\n      tag_192\n      tag_106\n      jump\t// in\n    tag_192:\n        /* \"#utility.yul\":4561:4683   */\n    tag_191:\n        /* \"#utility.yul\":4719:4725   */\n      dup2\n        /* \"#utility.yul\":4706:4726   */\n      calldataload\n        /* \"#utility.yul\":4744:4823   */\n      tag_193\n        /* \"#utility.yul\":4819:4822   */\n      dup5\n        /* \"#utility.yul\":4811:4817   */\n      dup3\n        /* \"#utility.yul\":4804:4808   */\n      0x20\n        /* \"#utility.yul\":4796:4802   */\n      dup7\n        /* \"#utility.yul\":4792:4809   */\n      add\n        /* \"#utility.yul\":4744:4823   */\n      tag_113\n      jump\t// in\n    tag_193:\n        /* \"#utility.yul\":4735:4823   */\n      swap2\n      pop\n        /* \"#utility.yul\":4551:4829   */\n      pop\n        /* \"#utility.yul\":4489:4829   */\n      swap3\n      swap2\n      pop\n      pop\n      jump\t// out\n        /* \"#utility.yul\":4835:5344   */\n    tag_29:\n        /* \"#utility.yul\":4904:4910   */\n      0x00\n        /* \"#utility.yul\":4953:4955   */\n      0x20\n        /* \"#utility.yul\":4941:4950   */\n      dup3\n        /* \"#utility.yul\":4932:4939   */\n      dup5\n        /* \"#utility.yul\":4928:4951   */\n      sub\n        /* \"#utility.yul\":4924:4956   */\n      slt\n        /* \"#utility.yul\":4921:5040   */\n      iszero\n      tag_195\n      jumpi\n        /* \"#utility.yul\":4959:5038   */\n      tag_196\n      tag_95\n      jump\t// in\n    tag_196:\n        /* \"#utility.yul\":4921:5040   */\n    tag_195:\n        /* \"#utility.yul\":5107:5108   */\n      0x00\n        /* \"#utility.yul\":5096:5105   */\n      dup3\n        /* \"#utility.yul\":5092:5109   */\n      add\n        /* \"#utility.yul\":5079:5110   */\n      calldataload\n        /* \"#utility.yul\":5137:5155   */\n      0xffffffffffffffff\n        /* \"#utility.yul\":5129:5135   */\n      dup2\n        /* \"#utility.yul\":5126:5156   */\n      gt\n        /* \"#utility.yul\":5123:5240   */\n      iszero\n      tag_197\n      jumpi\n        /* \"#utility.yul\":5159:5238   */\n      tag_198\n      tag_96\n      jump\t// in\n    tag_198:\n        /* \"#utility.yul\":5123:5240   */\n    tag_197:\n        /* \"#utility.yul\":5264:5327   */\n      tag_199\n        /* \"#utility.yul\":5319:5326   */\n      dup5\n        /* \"#utility.yul\":5310:5316   */\n      dup3\n        /* \"#utility.yul\":5299:5308   */\n      dup6\n        /* \"#utility.yul\":5295:5317   */\n      add\n        /* \"#utility.yul\":5264:5327   */\n      tag_114\n      jump\t// in\n    tag_199:\n        /* \"#utility.yul\":5254:5327   */\n      swap2\n      pop\n        /* \"#utility.yul\":5050:5337   */\n      pop\n        /* \"#utility.yul\":4835:5344   */\n      swap3\n      swap2\n      pop\n      pop\n      jump\t// out\n        /* \"#utility.yul\":5350:5663   */\n    tag_37:\n        /* \"#utility.yul\":5463:5467   */\n      0x00\n        /* \"#utility.yul\":5501:5503   */\n      0x20\n        /* \"#utility.yul\":5490:5499   */\n      dup3\n        /* \"#utility.yul\":5486:5504   */\n      add\n        /* \"#utility.yul\":5478:5504   */\n      swap1\n      pop\n        /* \"#utility.yul\":5550:5559   */\n      dup2\n        /* \"#utility.yul\":5544:5548   */\n      dup2\n        /* \"#utility.yul\":5540:5560   */\n      sub\n        /* \"#utility.yul\":5536:5537   */\n      0x00\n        /* \"#utility.yul\":5525:5534   */\n      dup4\n        /* \"#utility.yul\":5521:5538   */\n      add\n        /* \"#utility.yul\":5514:5561   */\n      mstore\n        /* \"#utility.yul\":5578:5656   */\n      tag_201\n        /* \"#utility.yul\":5651:5655   */\n      dup2\n        /* \"#utility.yul\":5642:5648   */\n      dup5\n        /* \"#utility.yul\":5578:5656   */\n      tag_105\n      jump\t// in\n    tag_201:\n        /* \"#utility.yul\":5570:5656   */\n      swap1\n      pop\n        /* \"#utility.yul\":5350:5663   */\n      swap3\n      swap2\n      pop\n      pop\n      jump\t// out\n        /* \"#utility.yul\":5669:5795   */\n    tag_115:\n        /* \"#utility.yul\":5706:5713   */\n      0x00\n        /* \"#utility.yul\":5746:5788   */\n      0xffffffffffffffffffffffffffffffffffffffff\n        /* \"#utility.yul\":5739:5744   */\n      dup3\n        /* \"#utility.yul\":5735:5789   */\n      and\n        /* \"#utility.yul\":5724:5789   */\n      swap1\n      pop\n        /* \"#utility.yul\":5669:5795   */\n      swap2\n      swap1\n      pop\n      jump\t// out\n        /* \"#utility.yul\":5801:5897   */\n    tag_116:\n        /* \"#utility.yul\":5838:5845   */\n      0x00\n        /* \"#utility.yul\":5867:5891   */\n      tag_204\n        /* \"#utility.yul\":5885:5890   */\n      dup3\n        /* \"#utility.yul\":5867:5891   */\n      tag_115\n      jump\t// in\n    tag_204:\n        /* \"#utility.yul\":5856:5891   */\n      swap1\n      pop\n        /* \"#utility.yul\":5801:5897   */\n      swap2\n      swap1\n      pop\n      jump\t// out\n        /* \"#utility.yul\":5903:6021   */\n    tag_117:\n        /* \"#utility.yul\":5990:6014   */\n      tag_206\n        /* \"#utility.yul\":6008:6013   */\n      dup2\n        /* \"#utility.yul\":5990:6014   */\n      tag_116\n      jump\t// in\n    tag_206:\n        /* \"#utility.yul\":5985:5988   */\n      dup3\n        /* \"#utility.yul\":5978:6015   */\n      mstore\n        /* \"#utility.yul\":5903:6021   */\n      pop\n      pop\n      jump\t// out\n        /* \"#utility.yul\":6027:6249   */\n    tag_41:\n        /* \"#utility.yul\":6120:6124   */\n      0x00\n        /* \"#utility.yul\":6158:6160   */\n      0x20\n        /* \"#utility.yul\":6147:6156   */\n      dup3\n        /* \"#utility.yul\":6143:6161   */\n      add\n        /* \"#utility.yul\":6135:6161   */\n      swap1\n      pop\n        /* \"#utility.yul\":6171:6242   */\n      tag_208\n        /* \"#utility.yul\":6239:6240   */\n      0x00\n        /* \"#utility.yul\":6228:6237   */\n      dup4\n        /* \"#utility.yul\":6224:6241   */\n      add\n        /* \"#utility.yul\":6215:6221   */\n      dup5\n        /* \"#utility.yul\":6171:6242   */\n      tag_117\n      jump\t// in\n    tag_208:\n        /* \"#utility.yul\":6027:6249   */\n      swap3\n      swap2\n      pop\n      pop\n      jump\t// out\n        /* \"#utility.yul\":6255:6377   */\n    tag_118:\n        /* \"#utility.yul\":6328:6352   */\n      tag_210\n        /* \"#utility.yul\":6346:6351   */\n      dup2\n        /* \"#utility.yul\":6328:6352   */\n      tag_116\n      jump\t// in\n    tag_210:\n        /* \"#utility.yul\":6321:6326   */\n      dup2\n        /* \"#utility.yul\":6318:6353   */\n      eq\n        /* \"#utility.yul\":6308:6371   */\n      tag_211\n      jumpi\n        /* \"#utility.yul\":6367:6368   */\n      0x00\n        /* \"#utility.yul\":6364:6365   */\n      dup1\n        /* \"#utility.yul\":6357:6369   */\n      revert\n        /* \"#utility.yul\":6308:6371   */\n    tag_211:\n        /* \"#utility.yul\":6255:6377   */\n      pop\n      jump\t// out\n        /* \"#utility.yul\":6383:6522   */\n    tag_119:\n        /* \"#utility.yul\":6429:6434   */\n      0x00\n        /* \"#utility.yul\":6467:6473   */\n      dup2\n        /* \"#utility.yul\":6454:6474   */\n      calldataload\n        /* \"#utility.yul\":6445:6474   */\n      swap1\n      pop\n        /* \"#utility.yul\":6483:6516   */\n      tag_213\n        /* \"#utility.yul\":6510:6515   */\n      dup2\n        /* \"#utility.yul\":6483:6516   */\n      tag_118\n      jump\t// in\n    tag_213:\n        /* \"#utility.yul\":6383:6522   */\n      swap3\n      swap2\n      pop\n      pop\n      jump\t// out\n        /* \"#utility.yul\":6528:6857   */\n    tag_44:\n        /* \"#utility.yul\":6587:6593   */\n      0x00\n        /* \"#utility.yul\":6636:6638   */\n      0x20\n        /* \"#utility.yul\":6624:6633   */\n      dup3\n        /* \"#utility.yul\":6615:6622   */\n      dup5\n        /* \"#utility.yul\":6611:6634   */\n      sub\n        /* \"#utility.yul\":6607:6639   */\n      slt\n        /* \"#utility.yul\":6604:6723   */\n      iszero\n      tag_215\n      jumpi\n        /* \"#utility.yul\":6642:6721   */\n      tag_216\n      tag_95\n      jump\t// in\n    tag_216:\n        /* \"#utility.yul\":6604:6723   */\n    tag_215:\n        /* \"#utility.yul\":6762:6763   */\n      0x00\n        /* \"#utility.yul\":6787:6840   */\n      tag_217\n        /* \"#utility.yul\":6832:6839   */\n      dup5\n        /* \"#utility.yul\":6823:6829   */\n      dup3\n        /* \"#utility.yul\":6812:6821   */\n      dup6\n        /* \"#utility.yul\":6808:6830   */\n      add\n        /* \"#utility.yul\":6787:6840   */\n      tag_119\n      jump\t// in\n    tag_217:\n        /* \"#utility.yul\":6777:6840   */\n      swap2\n      pop\n        /* \"#utility.yul\":6733:6850   */\n      pop\n        /* \"#utility.yul\":6528:6857   */\n      swap3\n      swap2\n      pop\n      pop\n      jump\t// out\n        /* \"#utility.yul\":6863:6953   */\n    tag_120:\n        /* \"#utility.yul\":6897:6904   */\n      0x00\n        /* \"#utility.yul\":6940:6945   */\n      dup2\n        /* \"#utility.yul\":6933:6946   */\n      iszero\n        /* \"#utility.yul\":6926:6947   */\n      iszero\n        /* \"#utility.yul\":6915:6947   */\n      swap1\n      pop\n        /* \"#utility.yul\":6863:6953   */\n      swap2\n      swap1\n      pop\n      jump\t// out\n        /* \"#utility.yul\":6959:7068   */\n    tag_121:\n        /* \"#utility.yul\":7040:7061   */\n      tag_220\n        /* \"#utility.yul\":7055:7060   */\n      dup2\n        /* \"#utility.yul\":7040:7061   */\n      tag_120\n      jump\t// in\n    tag_220:\n        /* \"#utility.yul\":7035:7038   */\n      dup3\n        /* \"#utility.yul\":7028:7062   */\n      mstore\n        /* \"#utility.yul\":6959:7068   */\n      pop\n      pop\n      jump\t// out\n        /* \"#utility.yul\":7074:7694   */\n    tag_47:\n        /* \"#utility.yul\":7259:7263   */\n      0x00\n        /* \"#utility.yul\":7297:7300   */\n      0x80\n        /* \"#utility.yul\":7286:7295   */\n      dup3\n        /* \"#utility.yul\":7282:7301   */\n      add\n        /* \"#utility.yul\":7274:7301   */\n      swap1\n      pop\n        /* \"#utility.yul\":7347:7356   */\n      dup2\n        /* \"#utility.yul\":7341:7345   */\n      dup2\n        /* \"#utility.yul\":7337:7357   */\n      sub\n        /* \"#utility.yul\":7333:7334   */\n      0x00\n        /* \"#utility.yul\":7322:7331   */\n      dup4\n        /* \"#utility.yul\":7318:7335   */\n      add\n        /* \"#utility.yul\":7311:7358   */\n      mstore\n        /* \"#utility.yul\":7375:7453   */\n      tag_222\n        /* \"#utility.yul\":7448:7452   */\n      dup2\n        /* \"#utility.yul\":7439:7445   */\n      dup8\n        /* \"#utility.yul\":7375:7453   */\n      tag_105\n      jump\t// in\n    tag_222:\n        /* \"#utility.yul\":7367:7453   */\n      swap1\n      pop\n        /* \"#utility.yul\":7463:7529   */\n      tag_223\n        /* \"#utility.yul\":7525:7527   */\n      0x20\n        /* \"#utility.yul\":7514:7523   */\n      dup4\n        /* \"#utility.yul\":7510:7528   */\n      add\n        /* \"#utility.yul\":7501:7507   */\n      dup7\n        /* \"#utility.yul\":7463:7529   */\n      tag_121\n      jump\t// in\n    tag_223:\n        /* \"#utility.yul\":7539:7611   */\n      tag_224\n        /* \"#utility.yul\":7607:7609   */\n      0x40\n        /* \"#utility.yul\":7596:7605   */\n      dup4\n        /* \"#utility.yul\":7592:7610   */\n      add\n        /* \"#utility.yul\":7583:7589   */\n      dup6\n        /* \"#utility.yul\":7539:7611   */\n      tag_100\n      jump\t// in\n    tag_224:\n        /* \"#utility.yul\":7621:7687   */\n      tag_225\n        /* \"#utility.yul\":7683:7685   */\n      0x60\n        /* \"#utility.yul\":7672:7681   */\n      dup4\n        /* \"#utility.yul\":7668:7686   */\n      add\n        /* \"#utility.yul\":7659:7665   */\n      dup5\n        /* \"#utility.yul\":7621:7687   */\n      tag_121\n      jump\t// in\n    tag_225:\n        /* \"#utility.yul\":7074:7694   */\n      swap6\n      swap5\n      pop\n      pop\n      pop\n      pop\n      pop\n      jump\t// out\n        /* \"#utility.yul\":7700:7880   */\n    tag_59:\n        /* \"#utility.yul\":7748:7825   */\n      0x4e487b7100000000000000000000000000000000000000000000000000000000\n        /* \"#utility.yul\":7745:7746   */\n      0x00\n        /* \"#utility.yul\":7738:7826   */\n      mstore\n        /* \"#utility.yul\":7845:7849   */\n      0x32\n        /* \"#utility.yul\":7842:7843   */\n      0x04\n        /* \"#utility.yul\":7835:7850   */\n      mstore\n        /* \"#utility.yul\":7869:7873   */\n      0x24\n        /* \"#utility.yul\":7866:7867   */\n      0x00\n        /* \"#utility.yul\":7859:7874   */\n      revert\n        /* \"#utility.yul\":7886:8066   */\n    tag_122:\n        /* \"#utility.yul\":7934:8011   */\n      0x4e487b7100000000000000000000000000000000000000000000000000000000\n        /* \"#utility.yul\":7931:7932   */\n      0x00\n        /* \"#utility.yul\":7924:8012   */\n      mstore\n        /* \"#utility.yul\":8031:8035   */\n      0x11\n        /* \"#utility.yul\":8028:8029   */\n      0x04\n        /* \"#utility.yul\":8021:8036   */\n      mstore\n        /* \"#utility.yul\":8055:8059   */\n      0x24\n        /* \"#utility.yul\":8052:8053   */\n      0x00\n        /* \"#utility.yul\":8045:8060   */\n      revert\n        /* \"#utility.yul\":8072:8305   */\n    tag_62:\n        /* \"#utility.yul\":8111:8114   */\n      0x00\n        /* \"#utility.yul\":8134:8158   */\n      tag_229\n        /* \"#utility.yul\":8152:8157   */\n      dup3\n        /* \"#utility.yul\":8134:8158   */\n      tag_97\n      jump\t// in\n    tag_229:\n        /* \"#utility.yul\":8125:8158   */\n      swap2\n      pop\n        /* \"#utility.yul\":8180:8246   */\n      0xffffffffffffffffffffffffffffffffffffffffffffffffffffffffffffffff\n        /* \"#utility.yul\":8173:8178   */\n      dup3\n        /* \"#utility.yul\":8170:8247   */\n      sub\n        /* \"#utility.yul\":8167:8270   */\n      tag_230\n      jumpi\n        /* \"#utility.yul\":8250:8268   */\n      tag_231\n      tag_122\n      jump\t// in\n    tag_231:\n        /* \"#utility.yul\":8167:8270   */\n    tag_230:\n        /* \"#utility.yul\":8297:8298   */\n      0x01\n        /* \"#utility.yul\":8290:8295   */\n      dup3\n        /* \"#utility.yul\":8286:8299   */\n      add\n        /* \"#utility.yul\":8279:8299   */\n      swap1\n      pop\n        /* \"#utility.yul\":8072:8305   */\n      swap2\n      swap1\n      pop\n      jump\t// out\n        /* \"#utility.yul\":8311:8491   */\n    tag_123:\n        /* \"#utility.yul\":8359:8436   */\n      0x4e487b7100000000000000000000000000000000000000000000000000000000\n        /* \"#utility.yul\":8356:8357   */\n      0x00\n        /* \"#utility.yul\":8349:8437   */\n      mstore\n        /* \"#utility.yul\":8456:8460   */\n      0x22\n        /* \"#utility.yul\":8453:8454   */\n      0x04\n        /* \"#utility.yul\":8446:8461   */\n      mstore\n        /* \"#utility.yul\":8480:8484   */\n      0x24\n        /* \"#utility.yul\":8477:8478   */\n      0x00\n        /* \"#utility.yul\":8470:8485   */\n      revert\n        /* \"#utility.yul\":8497:8817   */\n    tag_67:\n        /* \"#utility.yul\":8541:8547   */\n      0x00\n        /* \"#utility.yul\":8578:8579   */\n      0x02\n        /* \"#utility.yul\":8572:8576   */\n      dup3\n        /* \"#utility.yul\":8568:8580   */\n      div\n        /* \"#utility.yul\":8558:8580   */\n      swap1\n      pop\n        /* \"#utility.yul\":8625:8626   */\n      0x01\n        /* \"#utility.yul\":8619:8623   */\n      dup3\n        /* \"#utility.yul\":8615:8627   */\n      and\n        /* \"#utility.yul\":8646:8664   */\n      dup1\n        /* \"#utility.yul\":8636:8717   */\n      tag_234\n      jumpi\n        /* \"#utility.yul\":8702:8706   */\n      0x7f\n        /* \"#utility.yul\":8694:8700   */\n      dup3\n        /* \"#utility.yul\":8690:8707   */\n      and\n        /* \"#utility.yul\":8680:8707   */\n      swap2\n      pop\n        /* \"#utility.yul\":8636:8717   */\n    tag_234:\n        /* \"#utility.yul\":8764:8766   */\n      0x20\n        /* \"#utility.yul\":8756:8762   */\n      dup3\n        /* \"#utility.yul\":8753:8767   */\n      lt\n        /* \"#utility.yul\":8733:8751   */\n      dup2\n        /* \"#utility.yul\":8730:8768   */\n      sub\n        /* \"#utility.yul\":8727:8811   */\n      tag_235\n      jumpi\n        /* \"#utility.yul\":8783:8801   */\n      tag_236\n      tag_123\n      jump\t// in\n    tag_236:\n        /* \"#utility.yul\":8727:8811   */\n    tag_235:\n        /* \"#utility.yul\":8548:8817   */\n      pop\n        /* \"#utility.yul\":8497:8817   */\n      swap2\n      swap1\n      pop\n      jump\t// out\n        /* \"#utility.yul\":8823:8964   */\n    tag_124:\n        /* \"#utility.yul\":8872:8876   */\n      0x00\n        /* \"#utility.yul\":8895:8898   */\n      dup2\n        /* \"#utility.yul\":8887:8898   */\n      swap1\n      pop\n        /* \"#utility.yul\":8918:8921   */\n      dup2\n        /* \"#utility.yul\":8915:8916   */\n      0x00\n        /* \"#utility.yul\":8908:8922   */\n      mstore\n        /* \"#utility.yul\":8952:8956   */\n      0x20\n        /* \"#utility.yul\":8949:8950   */\n      0x00\n        /* \"#utility.yul\":8939:8957   */\n      keccak256\n        /* \"#utility.yul\":8931:8957   */\n      swap1\n      pop\n        /* \"#utility.yul\":8823:8964   */\n      swap2\n      swap1\n      pop\n      jump\t// out\n        /* \"#utility.yul\":8970:9063   */\n    tag_125:\n        /* \"#utility.yul\":9007:9013   */\n      0x00\n        /* \"#utility.yul\":9054:9056   */\n      0x20\n        /* \"#utility.yul\":9049:9051   */\n      0x1f\n        /* \"#utility.yul\":9042:9047   */\n      dup4\n        /* \"#utility.yul\":9038:9052   */\n      add\n        /* \"#utility.yul\":9034:9057   */\n      div\n        /* \"#utility.yul\":9024:9057   */\n      swap1\n      pop\n        /* \"#utility.yul\":8970:9063   */\n      swap2\n      swap1\n      pop\n      jump\t// out\n        /* \"#utility.yul\":9069:9176   */\n    tag_126:\n        /* \"#utility.yul\":9113:9121   */\n      0x00\n        /* \"#utility.yul\":9163:9168   */\n      dup3\n        /* \"#utility.yul\":9157:9161   */\n      dup3\n        /* \"#utility.yul\":9153:9169   */\n      shl\n        /* \"#utility.yul\":9132:9169   */\n      swap1\n      pop\n        /* \"#utility.yul\":9069:9176   */\n      swap3\n      swap2\n      pop\n      pop\n      jump\t// out\n        /* \"#utility.yul\":9182:9575   */\n    tag_127:\n        /* \"#utility.yul\":9251:9257   */\n      0x00\n        /* \"#utility.yul\":9301:9302   */\n      0x08\n        /* \"#utility.yul\":9289:9299   */\n      dup4\n        /* \"#utility.yul\":9285:9303   */\n      mul\n        /* \"#utility.yul\":9324:9421   */\n      tag_241\n        /* \"#utility.yul\":9354:9420   */\n      0xffffffffffffffffffffffffffffffffffffffffffffffffffffffffffffffff\n        /* \"#utility.yul\":9343:9352   */\n      dup3\n        /* \"#utility.yul\":9324:9421   */\n      tag_126\n      jump\t// in\n    tag_241:\n        /* \"#utility.yul\":9442:9481   */\n      tag_242\n        /* \"#utility.yul\":9472:9480   */\n      dup7\n        /* \"#utility.yul\":9461:9470   */\n      dup4\n        /* \"#utility.yul\":9442:9481   */\n      tag_126\n      jump\t// in\n    tag_242:\n        /* \"#utility.yul\":9430:9481   */\n      swap6\n      pop\n        /* \"#utility.yul\":9514:9518   */\n      dup1\n        /* \"#utility.yul\":9510:9519   */\n      not\n        /* \"#utility.yul\":9503:9508   */\n      dup5\n        /* \"#utility.yul\":9499:9520   */\n      and\n        /* \"#utility.yul\":9490:9520   */\n      swap4\n      pop\n        /* \"#utility.yul\":9563:9567   */\n      dup1\n        /* \"#utility.yul\":9553:9561   */\n      dup7\n        /* \"#utility.yul\":9549:9568   */\n      and\n        /* \"#utility.yul\":9542:9547   */\n      dup5\n        /* \"#utility.yul\":9539:9569   */\n      or\n        /* \"#utility.yul\":9529:9569   */\n      swap3\n      pop\n        /* \"#utility.yul\":9258:9575   */\n      pop\n      pop\n        /* \"#utility.yul\":9182:9575   */\n      swap4\n      swap3\n      pop\n      pop\n      pop\n      jump\t// out\n        /* \"#utility.yul\":9581:9641   */\n    tag_128:\n        /* \"#utility.yul\":9609:9612   */\n      0x00\n        /* \"#utility.yul\":9630:9635   */\n      dup2\n        /* \"#utility.yul\":9623:9635   */\n      swap1\n      pop\n        /* \"#utility.yul\":9581:9641   */\n      swap2\n      swap1\n      pop\n      jump\t// out\n        /* \"#utility.yul\":9647:9789   */\n    tag_129:\n        /* \"#utility.yul\":9697:9706   */\n      0x00\n        /* \"#utility.yul\":9730:9783   */\n      tag_245\n        /* \"#utility.yul\":9748:9782   */\n      tag_246\n        /* \"#utility.yul\":9757:9781   */\n      tag_247\n        /* \"#utility.yul\":9775:9780   */\n      dup5\n        /* \"#utility.yul\":9757:9781   */\n      tag_97\n      jump\t// in\n    tag_247:\n        /* \"#utility.yul\":9748:9782   */\n      tag_128\n      jump\t// in\n    tag_246:\n        /* \"#utility.yul\":9730:9783   */\n      tag_97\n      jump\t// in\n    tag_245:\n        /* \"#utility.yul\":9717:9783   */\n      swap1\n      pop\n        /* \"#utility.yul\":9647:9789   */\n      swap2\n      swap1\n      pop\n      jump\t// out\n        /* \"#utility.yul\":9795:9870   */\n    tag_130:\n        /* \"#utility.yul\":9838:9841   */\n      0x00\n        /* \"#utility.yul\":9859:9864   */\n      dup2\n        /* \"#utility.yul\":9852:9864   */\n      swap1\n      pop\n        /* \"#utility.yul\":9795:9870   */\n      swap2\n      swap1\n      pop\n      jump\t// out\n        /* \"#utility.yul\":9876:10145   */\n    tag_131:\n        /* \"#utility.yul\":9986:10025   */\n      tag_250\n        /* \"#utility.yul\":10017:10024   */\n      dup4\n        /* \"#utility.yul\":9986:10025   */\n      tag_129\n      jump\t// in\n    tag_250:\n        /* \"#utility.yul\":10047:10138   */\n      tag_251\n        /* \"#utility.yul\":10096:10137   */\n      tag_252\n        /* \"#utility.yul\":10120:10136   */\n      dup3\n        /* \"#utility.yul\":10096:10137   */\n      tag_130\n      jump\t// in\n    tag_252:\n        /* \"#utility.yul\":10088:10094   */\n      dup5\n        /* \"#utility.yul\":10081:10085   */\n      dup5\n        /* \"#utility.yul\":10075:10086   */\n      sload\n        /* \"#utility.yul\":10047:10138   */\n      tag_127\n      jump\t// in\n    tag_251:\n        /* \"#utility.yul\":10041:10045   */\n      dup3\n        /* \"#utility.yul\":10034:10139   */\n      sstore\n        /* \"#utility.yul\":9952:10145   */\n      pop\n        /* \"#utility.yul\":9876:10145   */\n      pop\n      pop\n      pop\n      jump\t// out\n        /* \"#utility.yul\":10151:10224   */\n    tag_132:\n        /* \"#utility.yul\":10196:10199   */\n      0x00\n        /* \"#utility.yul\":10151:10224   */\n      swap1\n      jump\t// out\n        /* \"#utility.yul\":10230:10419   */\n    tag_133:\n        /* \"#utility.yul\":10307:10339   */\n      tag_255\n      tag_132\n      jump\t// in\n    tag_255:\n        /* \"#utility.yul\":10348:10413   */\n      tag_256\n        /* \"#utility.yul\":10406:10412   */\n      dup2\n        /* \"#utility.yul\":10398:10404   */\n      dup5\n        /* \"#utility.yul\":10392:10396   */\n      dup5\n        /* \"#utility.yul\":10348:10413   */\n      tag_131\n      jump\t// in\n    tag_256:\n        /* \"#utility.yul\":10283:10419   */\n      pop\n        /* \"#utility.yul\":10230:10419   */\n      pop\n      pop\n      jump\t// out\n        /* \"#utility.yul\":10425:10611   */\n    tag_134:\n        /* \"#utility.yul\":10485:10605   */\n    tag_258:\n        /* \"#utility.yul\":10502:10505   */\n      dup2\n        /* \"#utility.yul\":10495:10500   */\n      dup2\n        /* \"#utility.yul\":10492:10506   */\n      lt\n        /* \"#utility.yul\":10485:10605   */\n      iszero\n      tag_260\n      jumpi\n        /* \"#utility.yul\":10556:10595   */\n      tag_261\n        /* \"#utility.yul\":10593:10594   */\n      0x00\n        /* \"#utility.yul\":10586:10591   */\n      dup3\n        /* \"#utility.yul\":10556:10595   */\n      tag_133\n      jump\t// in\n    tag_261:\n        /* \"#utility.yul\":10529:10530   */\n      0x01\n        /* \"#utility.yul\":10522:10527   */\n      dup2\n        /* \"#utility.yul\":10518:10531   */\n      add\n        /* \"#utility.yul\":10509:10531   */\n      swap1\n      pop\n        /* \"#utility.yul\":10485:10605   */\n      jump(tag_258)\n    tag_260:\n        /* \"#utility.yul\":10425:10611   */\n      pop\n      pop\n      jump\t// out\n        /* \"#utility.yul\":10617:11160   */\n    tag_135:\n        /* \"#utility.yul\":10718:10720   */\n      0x1f\n        /* \"#utility.yul\":10713:10716   */\n      dup3\n        /* \"#utility.yul\":10710:10721   */\n      gt\n        /* \"#utility.yul\":10707:11153   */\n      iszero\n      tag_263\n      jumpi\n        /* \"#utility.yul\":10752:10790   */\n      tag_264\n        /* \"#utility.yul\":10784:10789   */\n      dup2\n        /* \"#utility.yul\":10752:10790   */\n      tag_124\n      jump\t// in\n    tag_264:\n        /* \"#utility.yul\":10836:10865   */\n      tag_265\n        /* \"#utility.yul\":10854:10864   */\n      dup5\n        /* \"#utility.yul\":10836:10865   */\n      tag_125\n      jump\t// in\n    tag_265:\n        /* \"#utility.yul\":10826:10834   */\n      dup2\n        /* \"#utility.yul\":10822:10866   */\n      add\n        /* \"#utility.yul\":11019:11021   */\n      0x20\n        /* \"#utility.yul\":11007:11017   */\n      dup6\n        /* \"#utility.yul\":11004:11022   */\n      lt\n        /* \"#utility.yul\":11001:11050   */\n      iszero\n      tag_266\n      jumpi\n        /* \"#utility.yul\":11040:11048   */\n      dup2\n        /* \"#utility.yul\":11025:11048   */\n      swap1\n      pop\n        /* \"#utility.yul\":11001:11050   */\n    tag_266:\n        /* \"#utility.yul\":11063:11143   */\n      tag_267\n        /* \"#utility.yul\":11119:11141   */\n      tag_268\n        /* \"#utility.yul\":11137:11140   */\n      dup6\n        /* \"#utility.yul\":11119:11141   */\n      tag_125\n      jump\t// in\n    tag_268:\n        /* \"#utility.yul\":11109:11117   */\n      dup4\n        /* \"#utility.yul\":11105:11142   */\n      add\n        /* \"#utility.yul\":11092:11103   */\n      dup3\n        /* \"#utility.yul\":11063:11143   */\n      tag_134\n      jump\t// in\n    tag_267:\n        /* \"#utility.yul\":10722:11153   */\n      pop\n      pop\n        /* \"#utility.yul\":10707:11153   */\n    tag_263:\n        /* \"#utility.yul\":10617:11160   */\n      pop\n      pop\n      pop\n      jump\t// out\n        /* \"#utility.yul\":11166:11283   */\n    tag_136:\n        /* \"#utility.yul\":11220:11228   */\n      0x00\n        /* \"#utility.yul\":11270:11275   */\n      dup3\n        /* \"#utility.yul\":11264:11268   */\n      dup3\n        /* \"#utility.yul\":11260:11276   */\n      shr\n        /* \"#utility.yul\":11239:11276   */\n      swap1\n      pop\n        /* \"#utility.yul\":11166:11283   */\n      swap3\n      swap2\n      pop\n      pop\n      jump\t// out\n        /* \"#utility.yul\":11289:11458   */\n    tag_137:\n        /* \"#utility.yul\":11333:11339   */\n      0x00\n        /* \"#utility.yul\":11366:11417   */\n      tag_271\n        /* \"#utility.yul\":11414:11415   */\n      0x00\n        /* \"#utility.yul\":11410:11416   */\n      not\n        /* \"#utility.yul\":11402:11407   */\n      dup5\n        /* \"#utility.yul\":11399:11400   */\n      0x08\n        /* \"#utility.yul\":11395:11408   */\n      mul\n        /* \"#utility.yul\":11366:11417   */\n      tag_136\n      jump\t// in\n    tag_271:\n        /* \"#utility.yul\":11362:11418   */\n      not\n        /* \"#utility.yul\":11447:11451   */\n      dup1\n        /* \"#utility.yul\":11441:11445   */\n      dup4\n        /* \"#utility.yul\":11437:11452   */\n      and\n        /* \"#utility.yul\":11427:11452   */\n      swap2\n      pop\n        /* \"#utility.yul\":11340:11458   */\n      pop\n        /* \"#utility.yul\":11289:11458   */\n      swap3\n      swap2\n      pop\n      pop\n      jump\t// out\n        /* \"#utility.yul\":11463:11758   */\n    tag_138:\n        /* \"#utility.yul\":11539:11543   */\n      0x00\n        /* \"#utility.yul\":11685:11714   */\n      tag_273\n        /* \"#utility.yul\":11710:11713   */\n      dup4\n        /* \"#utility.yul\":11704:11708   */\n      dup4\n        /* \"#utility.yul\":11685:11714   */\n      tag_137\n      jump\t// in\n    tag_273:\n        /* \"#utility.yul\":11677:11714   */\n      swap2\n      pop\n        /* \"#utility.yul\":11747:11750   */\n      dup3\n        /* \"#utility.yul\":11744:11745   */\n      0x02\n        /* \"#utility.yul\":11740:11751   */\n      mul\n        /* \"#utility.yul\":11734:11738   */\n      dup3\n        /* \"#utility.yul\":11731:11752   */\n      or\n        /* \"#utility.yul\":11723:11752   */\n      swap1\n      pop\n        /* \"#utility.yul\":11463:11758   */\n      swap3\n      swap2\n      pop\n      pop\n      jump\t// out\n        /* \"#utility.yul\":11763:13158   */\n    tag_77:\n        /* \"#utility.yul\":11880:11917   */\n      tag_275\n        /* \"#utility.yul\":11913:11916   */\n      dup3\n        /* \"#utility.yul\":11880:11917   */\n      tag_101\n      jump\t// in\n    tag_275:\n        /* \"#utility.yul\":11982:12000   */\n      0xffffffffffffffff\n        /* \"#utility.yul\":11974:11980   */\n      dup2\n        /* \"#utility.yul\":11971:12001   */\n      gt\n        /* \"#utility.yul\":11968:12024   */\n      iszero\n      tag_276\n      jumpi\n        /* \"#utility.yul\":12004:12022   */\n      tag_277\n      tag_108\n      jump\t// in\n    tag_277:\n        /* \"#utility.yul\":11968:12024   */\n    tag_276:\n        /* \"#utility.yul\":12048:12086   */\n      tag_278\n        /* \"#utility.yul\":12080:12084   */\n      dup3\n        /* \"#utility.yul\":12074:12085   */\n      sload\n        /* \"#utility.yul\":12048:12086   */\n      tag_67\n      jump\t// in\n    tag_278:\n        /* \"#utility.yul\":12133:12200   */\n      tag_279\n        /* \"#utility.yul\":12193:12199   */\n      dup3\n        /* \"#utility.yul\":12185:12191   */\n      dup3\n        /* \"#utility.yul\":12179:12183   */\n      dup6\n        /* \"#utility.yul\":12133:12200   */\n      tag_135\n      jump\t// in\n    tag_279:\n        /* \"#utility.yul\":12227:12228   */\n      0x00\n        /* \"#utility.yul\":12251:12255   */\n      0x20\n        /* \"#utility.yul\":12238:12255   */\n      swap1\n      pop\n        /* \"#utility.yul\":12283:12285   */\n      0x1f\n        /* \"#utility.yul\":12275:12281   */\n      dup4\n        /* \"#utility.yul\":12272:12286   */\n      gt\n        /* \"#utility.yul\":12300:12301   */\n      0x01\n        /* \"#utility.yul\":12295:12913   */\n      dup2\n      eq\n      tag_281\n      jumpi\n        /* \"#utility.yul\":12957:12958   */\n      0x00\n        /* \"#utility.yul\":12974:12980   */\n      dup5\n        /* \"#utility.yul\":12971:13048   */\n      iszero\n      tag_282\n      jumpi\n        /* \"#utility.yul\":13023:13032   */\n      dup3\n        /* \"#utility.yul\":13018:13021   */\n      dup8\n        /* \"#utility.yul\":13014:13033   */\n      add\n        /* \"#utility.yul\":13008:13034   */\n      mload\n        /* \"#utility.yul\":12999:13034   */\n      swap1\n      pop\n        /* \"#utility.yul\":12971:13048   */\n    tag_282:\n        /* \"#utility.yul\":13074:13141   */\n      tag_283\n        /* \"#utility.yul\":13134:13140   */\n      dup6\n        /* \"#utility.yul\":13127:13132   */\n      dup3\n        /* \"#utility.yul\":13074:13141   */\n      tag_138\n      jump\t// in\n    tag_283:\n        /* \"#utility.yul\":13068:13072   */\n      dup7\n        /* \"#utility.yul\":13061:13142   */\n      sstore\n        /* \"#utility.yul\":12930:13152   */\n      pop\n        /* \"#utility.yul\":12265:13152   */\n      jump(tag_280)\n        /* \"#utility.yul\":12295:12913   */\n    tag_281:\n        /* \"#utility.yul\":12347:12351   */\n      0x1f\n        /* \"#utility.yul\":12343:12352   */\n      not\n        /* \"#utility.yul\":12335:12341   */\n      dup5\n        /* \"#utility.yul\":12331:12353   */\n      and\n        /* \"#utility.yul\":12381:12418   */\n      tag_284\n        /* \"#utility.yul\":12413:12417   */\n      dup7\n        /* \"#utility.yul\":12381:12418   */\n      tag_124\n      jump\t// in\n    tag_284:\n        /* \"#utility.yul\":12440:12441   */\n      0x00\n        /* \"#utility.yul\":12454:12662   */\n    tag_285:\n        /* \"#utility.yul\":12468:12475   */\n      dup3\n        /* \"#utility.yul\":12465:12466   */\n      dup2\n        /* \"#utility.yul\":12462:12476   */\n      lt\n        /* \"#utility.yul\":12454:12662   */\n      iszero\n      tag_287\n      jumpi\n        /* \"#utility.yul\":12547:12556   */\n      dup5\n        /* \"#utility.yul\":12542:12545   */\n      dup10\n        /* \"#utility.yul\":12538:12557   */\n      add\n        /* \"#utility.yul\":12532:12558   */\n      mload\n        /* \"#utility.yul\":12524:12530   */\n      dup3\n        /* \"#utility.yul\":12517:12559   */\n      sstore\n        /* \"#utility.yul\":12598:12599   */\n      0x01\n        /* \"#utility.yul\":12590:12596   */\n      dup3\n        /* \"#utility.yul\":12586:12600   */\n      add\n        /* \"#utility.yul\":12576:12600   */\n      swap2\n      pop\n        /* \"#utility.yul\":12645:12647   */\n      0x20\n        /* \"#utility.yul\":12634:12643   */\n      dup6\n        /* \"#utility.yul\":12630:12648   */\n      add\n        /* \"#utility.yul\":12617:12648   */\n      swap5\n      pop\n        /* \"#utility.yul\":12491:12495   */\n      0x20\n        /* \"#utility.yul\":12488:12489   */\n      dup2\n        /* \"#utility.yul\":12484:12496   */\n      add\n        /* \"#utility.yul\":12479:12496   */\n      swap1\n      pop\n        /* \"#utility.yul\":12454:12662   */\n      jump(tag_285)\n    tag_287:\n        /* \"#utility.yul\":12690:12696   */\n      dup7\n        /* \"#utility.yul\":12681:12688   */\n      dup4\n        /* \"#utility.yul\":12678:12697   */\n      lt\n        /* \"#utility.yul\":12675:12854   */\n      iszero\n      tag_288\n      jumpi\n        /* \"#utility.yul\":12748:12757   */\n      dup5\n        /* \"#utility.yul\":12743:12746   */\n      dup10\n        /* \"#utility.yul\":12739:12758   */\n      add\n        /* \"#utility.yul\":12733:12759   */\n      mload\n        /* \"#utility.yul\":12791:12839   */\n      tag_289\n        /* \"#utility.yul\":12833:12837   */\n      0x1f\n        /* \"#utility.yul\":12825:12831   */\n      dup10\n        /* \"#utility.yul\":12821:12838   */\n      and\n        /* \"#utility.yul\":12810:12819   */\n      dup3\n        /* \"#utility.yul\":12791:12839   */\n      tag_137\n      jump\t// in\n    tag_289:\n        /* \"#utility.yul\":12783:12789   */\n      dup4\n        /* \"#utility.yul\":12776:12840   */\n      sstore\n        /* \"#utility.yul\":12698:12854   */\n      pop\n        /* \"#utility.yul\":12675:12854   */\n    tag_288:\n        /* \"#utility.yul\":12900:12901   */\n      0x01\n        /* \"#utility.yul\":12896:12897   */\n      0x02\n        /* \"#utility.yul\":12888:12894   */\n      dup9\n        /* \"#utility.yul\":12884:12898   */\n      mul\n        /* \"#utility.yul\":12880:12902   */\n      add\n        /* \"#utility.yul\":12874:12878   */\n      dup9\n        /* \"#utility.yul\":12867:12903   */\n      sstore\n        /* \"#utility.yul\":12302:12913   */\n      pop\n      pop\n      pop\n        /* \"#utility.yul\":12265:13152   */\n    tag_280:\n      pop\n        /* \"#utility.yul\":11855:13158   */\n      pop\n      pop\n      pop\n        /* \"#utility.yul\":11763:13158   */\n      pop\n      pop\n      jump\t// out\n\n    auxdata: 0xa2646970667358221220a755223088810207c3325792b70a377f3a2f2ccf69a89e756d9d0b2ede5e2d3764736f6c634300081a0033\n}\n",
				"bytecode": {
					"linkReferences": {},
					"object": "6080604052348015600e575f80fd5b50610ef88061001c5f395ff3fe608060405234801561000f575f80fd5b506004361061009c575f3560e01c806385e8e7a71161006457806385e8e7a7146101455780638da5cb5b14610163578063a3ec138d14610181578063f544bed8146101b4578063fd47b368146101d05761009c565b80630121b93f146100a05780630d15fd77146100bc5780633477ee2e146100da578063462e91ec1461010b5780635c06b06e14610127575b5f80fd5b6100ba60048036038101906100b591906107c3565b6101ec565b005b6100c4610386565b6040516100d191906107fd565b60405180910390f35b6100f460048036038101906100ef91906107c3565b61038c565b604051610102929190610886565b60405180910390f35b610125600480360381019061012091906109e0565b610441565b005b61012f6104f7565b60405161013c91906107fd565b60405180910390f35b61014d610503565b60405161015a9190610a27565b60405180910390f35b61016b61058f565b6040516101789190610a86565b60405180910390f35b61019b60048036038101906101969190610ac9565b6105b2565b6040516101ab9493929190610b0e565b60405180910390f35b6101ce60048036038101906101c991906109e0565b61067c565b005b6101ea60048036038101906101e59190610ac9565b6106ce565b005b60025f3373ffffffffffffffffffffffffffffffffffffffff1673ffffffffffffffffffffffffffffffffffffffff1681526020019081526020015f206003015f9054906101000a900460ff1615610242575f80fd5b60025f3373ffffffffffffffffffffffffffffffffffffffff1673ffffffffffffffffffffffffffffffffffffffff1681526020019081526020015f206001015f9054906101000a900460ff16610297575f80fd5b8060025f3373ffffffffffffffffffffffffffffffffffffffff1673ffffffffffffffffffffffffffffffffffffffff1681526020019081526020015f2060020181905550600160025f3373ffffffffffffffffffffffffffffffffffffffff1673ffffffffffffffffffffffffffffffffffffffff1681526020019081526020015f206003015f6101000a81548160ff0219169083151502179055506003818154811061034857610347610b58565b5b905f5260205f2090600202016001015f81548092919061036790610bb2565b919050555060045f81548092919061037e90610bb2565b919050555050565b60045481565b6003818154811061039b575f80fd5b905f5260205f2090600202015f91509050805f0180546103ba90610c26565b80601f01602080910402602001604051908101604052809291908181526020018280546103e690610c26565b80156104315780601f1061040857610100808354040283529160200191610431565b820191905f5260205f20905b81548152906001019060200180831161041457829003601f168201915b5050505050908060010154905082565b5f8054906101000a900473ffffffffffffffffffffffffffffffffffffffff1673ffffffffffffffffffffffffffffffffffffffff163373ffffffffffffffffffffffffffffffffffffffff1614610497575f80fd5b600360405180604001604052808381526020015f815250908060018154018082558091505060019003905f5260205f2090600202015f909190919091505f820151815f0190816104e79190610df3565b5060208201518160010155505050565b5f600380549050905090565b6001805461051090610c26565b80601f016020809104026020016040519081016040528092919081815260200182805461053c90610c26565b80156105875780601f1061055e57610100808354040283529160200191610587565b820191905f5260205f20905b81548152906001019060200180831161056a57829003601f168201915b505050505081565b5f8054906101000a900473ffffffffffffffffffffffffffffffffffffffff1681565b6002602052805f5260405f205f91509050805f0180546105d190610c26565b80601f01602080910402602001604051908101604052809291908181526020018280546105fd90610c26565b80156106485780601f1061061f57610100808354040283529160200191610648565b820191905f5260205f20905b81548152906001019060200180831161062b57829003601f168201915b505050505090806001015f9054906101000a900460ff1690806002015490806003015f9054906101000a900460ff16905084565b335f806101000a81548173ffffffffffffffffffffffffffffffffffffffff021916908373ffffffffffffffffffffffffffffffffffffffff16021790555080600190816106ca9190610df3565b5050565b5f8054906101000a900473ffffffffffffffffffffffffffffffffffffffff1673ffffffffffffffffffffffffffffffffffffffff163373ffffffffffffffffffffffffffffffffffffffff1614610724575f80fd5b600160025f8373ffffffffffffffffffffffffffffffffffffffff1673ffffffffffffffffffffffffffffffffffffffff1681526020019081526020015f206001015f6101000a81548160ff02191690831515021790555050565b5f604051905090565b5f80fd5b5f80fd5b5f819050919050565b6107a281610790565b81146107ac575f80fd5b50565b5f813590506107bd81610799565b92915050565b5f602082840312156107d8576107d7610788565b5b5f6107e5848285016107af565b91505092915050565b6107f781610790565b82525050565b5f6020820190506108105f8301846107ee565b92915050565b5f81519050919050565b5f82825260208201905092915050565b8281835e5f83830152505050565b5f601f19601f8301169050919050565b5f61085882610816565b6108628185610820565b9350610872818560208601610830565b61087b8161083e565b840191505092915050565b5f6040820190508181035f83015261089e818561084e565b90506108ad60208301846107ee565b9392505050565b5f80fd5b5f80fd5b7f4e487b71000000000000000000000000000000000000000000000000000000005f52604160045260245ffd5b6108f28261083e565b810181811067ffffffffffffffff82111715610911576109106108bc565b5b80604052505050565b5f61092361077f565b905061092f82826108e9565b919050565b5f67ffffffffffffffff82111561094e5761094d6108bc565b5b6109578261083e565b9050602081019050919050565b828183375f83830152505050565b5f61098461097f84610934565b61091a565b9050828152602081018484840111156109a05761099f6108b8565b5b6109ab848285610964565b509392505050565b5f82601f8301126109c7576109c66108b4565b5b81356109d7848260208601610972565b91505092915050565b5f602082840312156109f5576109f4610788565b5b5f82013567ffffffffffffffff811115610a1257610a1161078c565b5b610a1e848285016109b3565b91505092915050565b5f6020820190508181035f830152610a3f818461084e565b905092915050565b5f73ffffffffffffffffffffffffffffffffffffffff82169050919050565b5f610a7082610a47565b9050919050565b610a8081610a66565b82525050565b5f602082019050610a995f830184610a77565b92915050565b610aa881610a66565b8114610ab2575f80fd5b50565b5f81359050610ac381610a9f565b92915050565b5f60208284031215610ade57610add610788565b5b5f610aeb84828501610ab5565b91505092915050565b5f8115159050919050565b610b0881610af4565b82525050565b5f6080820190508181035f830152610b26818761084e565b9050610b356020830186610aff565b610b4260408301856107ee565b610b4f6060830184610aff565b95945050505050565b7f4e487b71000000000000000000000000000000000000000000000000000000005f52603260045260245ffd5b7f4e487b71000000000000000000000000000000000000000000000000000000005f52601160045260245ffd5b5f610bbc82610790565b91507fffffffffffffffffffffffffffffffffffffffffffffffffffffffffffffffff8203610bee57610bed610b85565b5b600182019050919050565b7f4e487b71000000000000000000000000000000000000000000000000000000005f52602260045260245ffd5b5f6002820490506001821680610c3d57607f821691505b602082108103610c5057610c4f610bf9565b5b50919050565b5f819050815f5260205f209050919050565b5f6020601f8301049050919050565b5f82821b905092915050565b5f60088302610cb27fffffffffffffffffffffffffffffffffffffffffffffffffffffffffffffffff82610c77565b610cbc8683610c77565b95508019841693508086168417925050509392505050565b5f819050919050565b5f610cf7610cf2610ced84610790565b610cd4565b610790565b9050919050565b5f819050919050565b610d1083610cdd565b610d24610d1c82610cfe565b848454610c83565b825550505050565b5f90565b610d38610d2c565b610d43818484610d07565b505050565b5b81811015610d6657610d5b5f82610d30565b600181019050610d49565b5050565b601f821115610dab57610d7c81610c56565b610d8584610c68565b81016020851015610d94578190505b610da8610da085610c68565b830182610d48565b50505b505050565b5f82821c905092915050565b5f610dcb5f1984600802610db0565b1980831691505092915050565b5f610de38383610dbc565b9150826002028217905092915050565b610dfc82610816565b67ffffffffffffffff811115610e1557610e146108bc565b5b610e1f8254610c26565b610e2a828285610d6a565b5f60209050601f831160018114610e5b575f8415610e49578287015190505b610e538582610dd8565b865550610eba565b601f198416610e6986610c56565b5f5b82811015610e9057848901518255600182019150602085019450602081019050610e6b565b86831015610ead5784890151610ea9601f891682610dbc565b8355505b6001600288020188555050505b50505050505056fea2646970667358221220a755223088810207c3325792b70a377f3a2f2ccf69a89e756d9d0b2ede5e2d3764736f6c634300081a0033",
					"opcodes": "PUSH1 0x80 PUSH1 0x40 MSTORE CALLVALUE DUP1 ISZERO PUSH1 0xE JUMPI PUSH0 DUP1 REVERT JUMPDEST POP PUSH2 0xEF8 DUP1 PUSH2 0x1C PUSH0 CODECOPY PUSH0 RETURN INVALID PUSH1 0x80 PUSH1 0x40 MSTORE CALLVALUE DUP1 ISZERO PUSH2 0xF JUMPI PUSH0 DUP1 REVERT JUMPDEST POP PUSH1 0x4 CALLDATASIZE LT PUSH2 0x9C JUMPI PUSH0 CALLDATALOAD PUSH1 0xE0 SHR DUP1 PUSH4 0x85E8E7A7 GT PUSH2 0x64 JUMPI DUP1 PUSH4 0x85E8E7A7 EQ PUSH2 0x145 JUMPI DUP1 PUSH4 0x8DA5CB5B EQ PUSH2 0x163 JUMPI DUP1 PUSH4 0xA3EC138D EQ PUSH2 0x181 JUMPI DUP1 PUSH4 0xF544BED8 EQ PUSH2 0x1B4 JUMPI DUP1 PUSH4 0xFD47B368 EQ PUSH2 0x1D0 JUMPI PUSH2 0x9C JUMP JUMPDEST DUP1 PUSH4 0x121B93F EQ PUSH2 0xA0 JUMPI DUP1 PUSH4 0xD15FD77 EQ PUSH2 0xBC JUMPI DUP1 PUSH4 0x3477EE2E EQ PUSH2 0xDA JUMPI DUP1 PUSH4 0x462E91EC EQ PUSH2 0x10B JUMPI DUP1 PUSH4 0x5C06B06E EQ PUSH2 0x127 JUMPI JUMPDEST PUSH0 DUP1 REVERT JUMPDEST PUSH2 0xBA PUSH1 0x4 DUP1 CALLDATASIZE SUB DUP2 ADD SWAP1 PUSH2 0xB5 SWAP2 SWAP1 PUSH2 0x7C3 JUMP JUMPDEST PUSH2 0x1EC JUMP JUMPDEST STOP JUMPDEST PUSH2 0xC4 PUSH2 0x386 JUMP JUMPDEST PUSH1 0x40 MLOAD PUSH2 0xD1 SWAP2 SWAP1 PUSH2 0x7FD JUMP JUMPDEST PUSH1 0x40 MLOAD DUP1 SWAP2 SUB SWAP1 RETURN JUMPDEST PUSH2 0xF4 PUSH1 0x4 DUP1 CALLDATASIZE SUB DUP2 ADD SWAP1 PUSH2 0xEF SWAP2 SWAP1 PUSH2 0x7C3 JUMP JUMPDEST PUSH2 0x38C JUMP JUMPDEST PUSH1 0x40 MLOAD PUSH2 0x102 SWAP3 SWAP2 SWAP1 PUSH2 0x886 JUMP JUMPDEST PUSH1 0x40 MLOAD DUP1 SWAP2 SUB SWAP1 RETURN JUMPDEST PUSH2 0x125 PUSH1 0x4 DUP1 CALLDATASIZE SUB DUP2 ADD SWAP1 PUSH2 0x120 SWAP2 SWAP1 PUSH2 0x9E0 JUMP JUMPDEST PUSH2 0x441 JUMP JUMPDEST STOP JUMPDEST PUSH2 0x12F PUSH2 0x4F7 JUMP JUMPDEST PUSH1 0x40 MLOAD PUSH2 0x13C SWAP2 SWAP1 PUSH2 0x7FD JUMP JUMPDEST PUSH1 0x40 MLOAD DUP1 SWAP2 SUB SWAP1 RETURN JUMPDEST PUSH2 0x14D PUSH2 0x503 JUMP JUMPDEST PUSH1 0x40 MLOAD PUSH2 0x15A SWAP2 SWAP1 PUSH2 0xA27 JUMP JUMPDEST PUSH1 0x40 MLOAD DUP1 SWAP2 SUB SWAP1 RETURN JUMPDEST PUSH2 0x16B PUSH2 0x58F JUMP JUMPDEST PUSH1 0x40 MLOAD PUSH2 0x178 SWAP2 SWAP1 PUSH2 0xA86 JUMP JUMPDEST PUSH1 0x40 MLOAD DUP1 SWAP2 SUB SWAP1 RETURN JUMPDEST PUSH2 0x19B PUSH1 0x4 DUP1 CALLDATASIZE SUB DUP2 ADD SWAP1 PUSH2 0x196 SWAP2 SWAP1 PUSH2 0xAC9 JUMP JUMPDEST PUSH2 0x5B2 JUMP JUMPDEST PUSH1 0x40 MLOAD PUSH2 0x1AB SWAP5 SWAP4 SWAP3 SWAP2 SWAP1 PUSH2 0xB0E JUMP JUMPDEST PUSH1 0x40 MLOAD DUP1 SWAP2 SUB SWAP1 RETURN JUMPDEST PUSH2 0x1CE PUSH1 0x4 DUP1 CALLDATASIZE SUB DUP2 ADD SWAP1 PUSH2 0x1C9 SWAP2 SWAP1 PUSH2 0x9E0 JUMP JUMPDEST PUSH2 0x67C JUMP JUMPDEST STOP JUMPDEST PUSH2 0x1EA PUSH1 0x4 DUP1 CALLDATASIZE SUB DUP2 ADD SWAP1 PUSH2 0x1E5 SWAP2 SWAP1 PUSH2 0xAC9 JUMP JUMPDEST PUSH2 0x6CE JUMP JUMPDEST STOP JUMPDEST PUSH1 0x2 PUSH0 CALLER PUSH20 0xFFFFFFFFFFFFFFFFFFFFFFFFFFFFFFFFFFFFFFFF AND PUSH20 0xFFFFFFFFFFFFFFFFFFFFFFFFFFFFFFFFFFFFFFFF AND DUP2 MSTORE PUSH1 0x20 ADD SWAP1 DUP2 MSTORE PUSH1 0x20 ADD PUSH0 KECCAK256 PUSH1 0x3 ADD PUSH0 SWAP1 SLOAD SWAP1 PUSH2 0x100 EXP SWAP1 DIV PUSH1 0xFF AND ISZERO PUSH2 0x242 JUMPI PUSH0 DUP1 REVERT JUMPDEST PUSH1 0x2 PUSH0 CALLER PUSH20 0xFFFFFFFFFFFFFFFFFFFFFFFFFFFFFFFFFFFFFFFF AND PUSH20 0xFFFFFFFFFFFFFFFFFFFFFFFFFFFFFFFFFFFFFFFF AND DUP2 MSTORE PUSH1 0x20 ADD SWAP1 DUP2 MSTORE PUSH1 0x20 ADD PUSH0 KECCAK256 PUSH1 0x1 ADD PUSH0 SWAP1 SLOAD SWAP1 PUSH2 0x100 EXP SWAP1 DIV PUSH1 0xFF AND PUSH2 0x297 JUMPI PUSH0 DUP1 REVERT JUMPDEST DUP1 PUSH1 0x2 PUSH0 CALLER PUSH20 0xFFFFFFFFFFFFFFFFFFFFFFFFFFFFFFFFFFFFFFFF AND PUSH20 0xFFFFFFFFFFFFFFFFFFFFFFFFFFFFFFFFFFFFFFFF AND DUP2 MSTORE PUSH1 0x20 ADD SWAP1 DUP2 MSTORE PUSH1 0x20 ADD PUSH0 KECCAK256 PUSH1 0x2 ADD DUP2 SWAP1 SSTORE POP PUSH1 0x1 PUSH1 0x2 PUSH0 CALLER PUSH20 0xFFFFFFFFFFFFFFFFFFFFFFFFFFFFFFFFFFFFFFFF AND PUSH20 0xFFFFFFFFFFFFFFFFFFFFFFFFFFFFFFFFFFFFFFFF AND DUP2 MSTORE PUSH1 0x20 ADD SWAP1 DUP2 MSTORE PUSH1 0x20 ADD PUSH0 KECCAK256 PUSH1 0x3 ADD PUSH0 PUSH2 0x100 EXP DUP2 SLOAD DUP2 PUSH1 0xFF MUL NOT AND SWAP1 DUP4 ISZERO ISZERO MUL OR SWAP1 SSTORE POP PUSH1 0x3 DUP2 DUP2 SLOAD DUP2 LT PUSH2 0x348 JUMPI PUSH2 0x347 PUSH2 0xB58 JUMP JUMPDEST JUMPDEST SWAP1 PUSH0 MSTORE PUSH1 0x20 PUSH0 KECCAK256 SWAP1 PUSH1 0x2 MUL ADD PUSH1 0x1 ADD PUSH0 DUP2 SLOAD DUP1 SWAP3 SWAP2 SWAP1 PUSH2 0x367 SWAP1 PUSH2 0xBB2 JUMP JUMPDEST SWAP2 SWAP1 POP SSTORE POP PUSH1 0x4 PUSH0 DUP2 SLOAD DUP1 SWAP3 SWAP2 SWAP1 PUSH2 0x37E SWAP1 PUSH2 0xBB2 JUMP JUMPDEST SWAP2 SWAP1 POP SSTORE POP POP JUMP JUMPDEST PUSH1 0x4 SLOAD DUP2 JUMP JUMPDEST PUSH1 0x3 DUP2 DUP2 SLOAD DUP2 LT PUSH2 0x39B JUMPI PUSH0 DUP1 REVERT JUMPDEST SWAP1 PUSH0 MSTORE PUSH1 0x20 PUSH0 KECCAK256 SWAP1 PUSH1 0x2 MUL ADD PUSH0 SWAP2 POP SWAP1 POP DUP1 PUSH0 ADD DUP1 SLOAD PUSH2 0x3BA SWAP1 PUSH2 0xC26 JUMP JUMPDEST DUP1 PUSH1 0x1F ADD PUSH1 0x20 DUP1 SWAP2 DIV MUL PUSH1 0x20 ADD PUSH1 0x40 MLOAD SWAP1 DUP2 ADD PUSH1 0x40 MSTORE DUP1 SWAP3 SWAP2 SWAP1 DUP2 DUP2 MSTORE PUSH1 0x20 ADD DUP3 DUP1 SLOAD PUSH2 0x3E6 SWAP1 PUSH2 0xC26 JUMP JUMPDEST DUP1 ISZERO PUSH2 0x431 JUMPI DUP1 PUSH1 0x1F LT PUSH2 0x408 JUMPI PUSH2 0x100 DUP1 DUP4 SLOAD DIV MUL DUP4 MSTORE SWAP2 PUSH1 0x20 ADD SWAP2 PUSH2 0x431 JUMP JUMPDEST DUP3 ADD SWAP2 SWAP1 PUSH0 MSTORE PUSH1 0x20 PUSH0 KECCAK256 SWAP1 JUMPDEST DUP2 SLOAD DUP2 MSTORE SWAP1 PUSH1 0x1 ADD SWAP1 PUSH1 0x20 ADD DUP1 DUP4 GT PUSH2 0x414 JUMPI DUP3 SWAP1 SUB PUSH1 0x1F AND DUP3 ADD SWAP2 JUMPDEST POP POP POP POP POP SWAP1 DUP1 PUSH1 0x1 ADD SLOAD SWAP1 POP DUP3 JUMP JUMPDEST PUSH0 DUP1 SLOAD SWAP1 PUSH2 0x100 EXP SWAP1 DIV PUSH20 0xFFFFFFFFFFFFFFFFFFFFFFFFFFFFFFFFFFFFFFFF AND PUSH20 0xFFFFFFFFFFFFFFFFFFFFFFFFFFFFFFFFFFFFFFFF AND CALLER PUSH20 0xFFFFFFFFFFFFFFFFFFFFFFFFFFFFFFFFFFFFFFFF AND EQ PUSH2 0x497 JUMPI PUSH0 DUP1 REVERT JUMPDEST PUSH1 0x3 PUSH1 0x40 MLOAD DUP1 PUSH1 0x40 ADD PUSH1 0x40 MSTORE DUP1 DUP4 DUP2 MSTORE PUSH1 0x20 ADD PUSH0 DUP2 MSTORE POP SWAP1 DUP1 PUSH1 0x1 DUP2 SLOAD ADD DUP1 DUP3 SSTORE DUP1 SWAP2 POP POP PUSH1 0x1 SWAP1 SUB SWAP1 PUSH0 MSTORE PUSH1 0x20 PUSH0 KECCAK256 SWAP1 PUSH1 0x2 MUL ADD PUSH0 SWAP1 SWAP2 SWAP1 SWAP2 SWAP1 SWAP2 POP PUSH0 DUP3 ADD MLOAD DUP2 PUSH0 ADD SWAP1 DUP2 PUSH2 0x4E7 SWAP2 SWAP1 PUSH2 0xDF3 JUMP JUMPDEST POP PUSH1 0x20 DUP3 ADD MLOAD DUP2 PUSH1 0x1 ADD SSTORE POP POP POP JUMP JUMPDEST PUSH0 PUSH1 0x3 DUP1 SLOAD SWAP1 POP SWAP1 POP SWAP1 JUMP JUMPDEST PUSH1 0x1 DUP1 SLOAD PUSH2 0x510 SWAP1 PUSH2 0xC26 JUMP JUMPDEST DUP1 PUSH1 0x1F ADD PUSH1 0x20 DUP1 SWAP2 DIV MUL PUSH1 0x20 ADD PUSH1 0x40 MLOAD SWAP1 DUP2 ADD PUSH1 0x40 MSTORE DUP1 SWAP3 SWAP2 SWAP1 DUP2 DUP2 MSTORE PUSH1 0x20 ADD DUP3 DUP1 SLOAD PUSH2 0x53C SWAP1 PUSH2 0xC26 JUMP JUMPDEST DUP1 ISZERO PUSH2 0x587 JUMPI DUP1 PUSH1 0x1F LT PUSH2 0x55E JUMPI PUSH2 0x100 DUP1 DUP4 SLOAD DIV MUL DUP4 MSTORE SWAP2 PUSH1 0x20 ADD SWAP2 PUSH2 0x587 JUMP JUMPDEST DUP3 ADD SWAP2 SWAP1 PUSH0 MSTORE PUSH1 0x20 PUSH0 KECCAK256 SWAP1 JUMPDEST DUP2 SLOAD DUP2 MSTORE SWAP1 PUSH1 0x1 ADD SWAP1 PUSH1 0x20 ADD DUP1 DUP4 GT PUSH2 0x56A JUMPI DUP3 SWAP1 SUB PUSH1 0x1F AND DUP3 ADD SWAP2 JUMPDEST POP POP POP POP POP DUP2 JUMP JUMPDEST PUSH0 DUP1 SLOAD SWAP1 PUSH2 0x100 EXP SWAP1 DIV PUSH20 0xFFFFFFFFFFFFFFFFFFFFFFFFFFFFFFFFFFFFFFFF AND DUP2 JUMP JUMPDEST PUSH1 0x2 PUSH1 0x20 MSTORE DUP1 PUSH0 MSTORE PUSH1 0x40 PUSH0 KECCAK256 PUSH0 SWAP2 POP SWAP1 POP DUP1 PUSH0 ADD DUP1 SLOAD PUSH2 0x5D1 SWAP1 PUSH2 0xC26 JUMP JUMPDEST DUP1 PUSH1 0x1F ADD PUSH1 0x20 DUP1 SWAP2 DIV MUL PUSH1 0x20 ADD PUSH1 0x40 MLOAD SWAP1 DUP2 ADD PUSH1 0x40 MSTORE DUP1 SWAP3 SWAP2 SWAP1 DUP2 DUP2 MSTORE PUSH1 0x20 ADD DUP3 DUP1 SLOAD PUSH2 0x5FD SWAP1 PUSH2 0xC26 JUMP JUMPDEST DUP1 ISZERO PUSH2 0x648 JUMPI DUP1 PUSH1 0x1F LT PUSH2 0x61F JUMPI PUSH2 0x100 DUP1 DUP4 SLOAD DIV MUL DUP4 MSTORE SWAP2 PUSH1 0x20 ADD SWAP2 PUSH2 0x648 JUMP JUMPDEST DUP3 ADD SWAP2 SWAP1 PUSH0 MSTORE PUSH1 0x20 PUSH0 KECCAK256 SWAP1 JUMPDEST DUP2 SLOAD DUP2 MSTORE SWAP1 PUSH1 0x1 ADD SWAP1 PUSH1 0x20 ADD DUP1 DUP4 GT PUSH2 0x62B JUMPI DUP3 SWAP1 SUB PUSH1 0x1F AND DUP3 ADD SWAP2 JUMPDEST POP POP POP POP POP SWAP1 DUP1 PUSH1 0x1 ADD PUSH0 SWAP1 SLOAD SWAP1 PUSH2 0x100 EXP SWAP1 DIV PUSH1 0xFF AND SWAP1 DUP1 PUSH1 0x2 ADD SLOAD SWAP1 DUP1 PUSH1 0x3 ADD PUSH0 SWAP1 SLOAD SWAP1 PUSH2 0x100 EXP SWAP1 DIV PUSH1 0xFF AND SWAP1 POP DUP5 JUMP JUMPDEST CALLER PUSH0 DUP1 PUSH2 0x100 EXP DUP2 SLOAD DUP2 PUSH20 0xFFFFFFFFFFFFFFFFFFFFFFFFFFFFFFFFFFFFFFFF MUL NOT AND SWAP1 DUP4 PUSH20 0xFFFFFFFFFFFFFFFFFFFFFFFFFFFFFFFFFFFFFFFF AND MUL OR SWAP1 SSTORE POP DUP1 PUSH1 0x1 SWAP1 DUP2 PUSH2 0x6CA SWAP2 SWAP1 PUSH2 0xDF3 JUMP JUMPDEST POP POP JUMP JUMPDEST PUSH0 DUP1 SLOAD SWAP1 PUSH2 0x100 EXP SWAP1 DIV PUSH20 0xFFFFFFFFFFFFFFFFFFFFFFFFFFFFFFFFFFFFFFFF AND PUSH20 0xFFFFFFFFFFFFFFFFFFFFFFFFFFFFFFFFFFFFFFFF AND CALLER PUSH20 0xFFFFFFFFFFFFFFFFFFFFFFFFFFFFFFFFFFFFFFFF AND EQ PUSH2 0x724 JUMPI PUSH0 DUP1 REVERT JUMPDEST PUSH1 0x1 PUSH1 0x2 PUSH0 DUP4 PUSH20 0xFFFFFFFFFFFFFFFFFFFFFFFFFFFFFFFFFFFFFFFF AND PUSH20 0xFFFFFFFFFFFFFFFFFFFFFFFFFFFFFFFFFFFFFFFF AND DUP2 MSTORE PUSH1 0x20 ADD SWAP1 DUP2 MSTORE PUSH1 0x20 ADD PUSH0 KECCAK256 PUSH1 0x1 ADD PUSH0 PUSH2 0x100 EXP DUP2 SLOAD DUP2 PUSH1 0xFF MUL NOT AND SWAP1 DUP4 ISZERO ISZERO MUL OR SWAP1 SSTORE POP POP JUMP JUMPDEST PUSH0 PUSH1 0x40 MLOAD SWAP1 POP SWAP1 JUMP JUMPDEST PUSH0 DUP1 REVERT JUMPDEST PUSH0 DUP1 REVERT JUMPDEST PUSH0 DUP2 SWAP1 POP SWAP2 SWAP1 POP JUMP JUMPDEST PUSH2 0x7A2 DUP2 PUSH2 0x790 JUMP JUMPDEST DUP2 EQ PUSH2 0x7AC JUMPI PUSH0 DUP1 REVERT JUMPDEST POP JUMP JUMPDEST PUSH0 DUP2 CALLDATALOAD SWAP1 POP PUSH2 0x7BD DUP2 PUSH2 0x799 JUMP JUMPDEST SWAP3 SWAP2 POP POP JUMP JUMPDEST PUSH0 PUSH1 0x20 DUP3 DUP5 SUB SLT ISZERO PUSH2 0x7D8 JUMPI PUSH2 0x7D7 PUSH2 0x788 JUMP JUMPDEST JUMPDEST PUSH0 PUSH2 0x7E5 DUP5 DUP3 DUP6 ADD PUSH2 0x7AF JUMP JUMPDEST SWAP2 POP POP SWAP3 SWAP2 POP POP JUMP JUMPDEST PUSH2 0x7F7 DUP2 PUSH2 0x790 JUMP JUMPDEST DUP3 MSTORE POP POP JUMP JUMPDEST PUSH0 PUSH1 0x20 DUP3 ADD SWAP1 POP PUSH2 0x810 PUSH0 DUP4 ADD DUP5 PUSH2 0x7EE JUMP JUMPDEST SWAP3 SWAP2 POP POP JUMP JUMPDEST PUSH0 DUP2 MLOAD SWAP1 POP SWAP2 SWAP1 POP JUMP JUMPDEST PUSH0 DUP3 DUP3 MSTORE PUSH1 0x20 DUP3 ADD SWAP1 POP SWAP3 SWAP2 POP POP JUMP JUMPDEST DUP3 DUP2 DUP4 MCOPY PUSH0 DUP4 DUP4 ADD MSTORE POP POP POP JUMP JUMPDEST PUSH0 PUSH1 0x1F NOT PUSH1 0x1F DUP4 ADD AND SWAP1 POP SWAP2 SWAP1 POP JUMP JUMPDEST PUSH0 PUSH2 0x858 DUP3 PUSH2 0x816 JUMP JUMPDEST PUSH2 0x862 DUP2 DUP6 PUSH2 0x820 JUMP JUMPDEST SWAP4 POP PUSH2 0x872 DUP2 DUP6 PUSH1 0x20 DUP7 ADD PUSH2 0x830 JUMP JUMPDEST PUSH2 0x87B DUP2 PUSH2 0x83E JUMP JUMPDEST DUP5 ADD SWAP2 POP POP SWAP3 SWAP2 POP POP JUMP JUMPDEST PUSH0 PUSH1 0x40 DUP3 ADD SWAP1 POP DUP2 DUP2 SUB PUSH0 DUP4 ADD MSTORE PUSH2 0x89E DUP2 DUP6 PUSH2 0x84E JUMP JUMPDEST SWAP1 POP PUSH2 0x8AD PUSH1 0x20 DUP4 ADD DUP5 PUSH2 0x7EE JUMP JUMPDEST SWAP4 SWAP3 POP POP POP JUMP JUMPDEST PUSH0 DUP1 REVERT JUMPDEST PUSH0 DUP1 REVERT JUMPDEST PUSH32 0x4E487B7100000000000000000000000000000000000000000000000000000000 PUSH0 MSTORE PUSH1 0x41 PUSH1 0x4 MSTORE PUSH1 0x24 PUSH0 REVERT JUMPDEST PUSH2 0x8F2 DUP3 PUSH2 0x83E JUMP JUMPDEST DUP2 ADD DUP2 DUP2 LT PUSH8 0xFFFFFFFFFFFFFFFF DUP3 GT OR ISZERO PUSH2 0x911 JUMPI PUSH2 0x910 PUSH2 0x8BC JUMP JUMPDEST JUMPDEST DUP1 PUSH1 0x40 MSTORE POP POP POP JUMP JUMPDEST PUSH0 PUSH2 0x923 PUSH2 0x77F JUMP JUMPDEST SWAP1 POP PUSH2 0x92F DUP3 DUP3 PUSH2 0x8E9 JUMP JUMPDEST SWAP2 SWAP1 POP JUMP JUMPDEST PUSH0 PUSH8 0xFFFFFFFFFFFFFFFF DUP3 GT ISZERO PUSH2 0x94E JUMPI PUSH2 0x94D PUSH2 0x8BC JUMP JUMPDEST JUMPDEST PUSH2 0x957 DUP3 PUSH2 0x83E JUMP JUMPDEST SWAP1 POP PUSH1 0x20 DUP2 ADD SWAP1 POP SWAP2 SWAP1 POP JUMP JUMPDEST DUP3 DUP2 DUP4 CALLDATACOPY PUSH0 DUP4 DUP4 ADD MSTORE POP POP POP JUMP JUMPDEST PUSH0 PUSH2 0x984 PUSH2 0x97F DUP5 PUSH2 0x934 JUMP JUMPDEST PUSH2 0x91A JUMP JUMPDEST SWAP1 POP DUP3 DUP2 MSTORE PUSH1 0x20 DUP2 ADD DUP5 DUP5 DUP5 ADD GT ISZERO PUSH2 0x9A0 JUMPI PUSH2 0x99F PUSH2 0x8B8 JUMP JUMPDEST JUMPDEST PUSH2 0x9AB DUP5 DUP3 DUP6 PUSH2 0x964 JUMP JUMPDEST POP SWAP4 SWAP3 POP POP POP JUMP JUMPDEST PUSH0 DUP3 PUSH1 0x1F DUP4 ADD SLT PUSH2 0x9C7 JUMPI PUSH2 0x9C6 PUSH2 0x8B4 JUMP JUMPDEST JUMPDEST DUP2 CALLDATALOAD PUSH2 0x9D7 DUP5 DUP3 PUSH1 0x20 DUP7 ADD PUSH2 0x972 JUMP JUMPDEST SWAP2 POP POP SWAP3 SWAP2 POP POP JUMP JUMPDEST PUSH0 PUSH1 0x20 DUP3 DUP5 SUB SLT ISZERO PUSH2 0x9F5 JUMPI PUSH2 0x9F4 PUSH2 0x788 JUMP JUMPDEST JUMPDEST PUSH0 DUP3 ADD CALLDATALOAD PUSH8 0xFFFFFFFFFFFFFFFF DUP2 GT ISZERO PUSH2 0xA12 JUMPI PUSH2 0xA11 PUSH2 0x78C JUMP JUMPDEST JUMPDEST PUSH2 0xA1E DUP5 DUP3 DUP6 ADD PUSH2 0x9B3 JUMP JUMPDEST SWAP2 POP POP SWAP3 SWAP2 POP POP JUMP JUMPDEST PUSH0 PUSH1 0x20 DUP3 ADD SWAP1 POP DUP2 DUP2 SUB PUSH0 DUP4 ADD MSTORE PUSH2 0xA3F DUP2 DUP5 PUSH2 0x84E JUMP JUMPDEST SWAP1 POP SWAP3 SWAP2 POP POP JUMP JUMPDEST PUSH0 PUSH20 0xFFFFFFFFFFFFFFFFFFFFFFFFFFFFFFFFFFFFFFFF DUP3 AND SWAP1 POP SWAP2 SWAP1 POP JUMP JUMPDEST PUSH0 PUSH2 0xA70 DUP3 PUSH2 0xA47 JUMP JUMPDEST SWAP1 POP SWAP2 SWAP1 POP JUMP JUMPDEST PUSH2 0xA80 DUP2 PUSH2 0xA66 JUMP JUMPDEST DUP3 MSTORE POP POP JUMP JUMPDEST PUSH0 PUSH1 0x20 DUP3 ADD SWAP1 POP PUSH2 0xA99 PUSH0 DUP4 ADD DUP5 PUSH2 0xA77 JUMP JUMPDEST SWAP3 SWAP2 POP POP JUMP JUMPDEST PUSH2 0xAA8 DUP2 PUSH2 0xA66 JUMP JUMPDEST DUP2 EQ PUSH2 0xAB2 JUMPI PUSH0 DUP1 REVERT JUMPDEST POP JUMP JUMPDEST PUSH0 DUP2 CALLDATALOAD SWAP1 POP PUSH2 0xAC3 DUP2 PUSH2 0xA9F JUMP JUMPDEST SWAP3 SWAP2 POP POP JUMP JUMPDEST PUSH0 PUSH1 0x20 DUP3 DUP5 SUB SLT ISZERO PUSH2 0xADE JUMPI PUSH2 0xADD PUSH2 0x788 JUMP JUMPDEST JUMPDEST PUSH0 PUSH2 0xAEB DUP5 DUP3 DUP6 ADD PUSH2 0xAB5 JUMP JUMPDEST SWAP2 POP POP SWAP3 SWAP2 POP POP JUMP JUMPDEST PUSH0 DUP2 ISZERO ISZERO SWAP1 POP SWAP2 SWAP1 POP JUMP JUMPDEST PUSH2 0xB08 DUP2 PUSH2 0xAF4 JUMP JUMPDEST DUP3 MSTORE POP POP JUMP JUMPDEST PUSH0 PUSH1 0x80 DUP3 ADD SWAP1 POP DUP2 DUP2 SUB PUSH0 DUP4 ADD MSTORE PUSH2 0xB26 DUP2 DUP8 PUSH2 0x84E JUMP JUMPDEST SWAP1 POP PUSH2 0xB35 PUSH1 0x20 DUP4 ADD DUP7 PUSH2 0xAFF JUMP JUMPDEST PUSH2 0xB42 PUSH1 0x40 DUP4 ADD DUP6 PUSH2 0x7EE JUMP JUMPDEST PUSH2 0xB4F PUSH1 0x60 DUP4 ADD DUP5 PUSH2 0xAFF JUMP JUMPDEST SWAP6 SWAP5 POP POP POP POP POP JUMP JUMPDEST PUSH32 0x4E487B7100000000000000000000000000000000000000000000000000000000 PUSH0 MSTORE PUSH1 0x32 PUSH1 0x4 MSTORE PUSH1 0x24 PUSH0 REVERT JUMPDEST PUSH32 0x4E487B7100000000000000000000000000000000000000000000000000000000 PUSH0 MSTORE PUSH1 0x11 PUSH1 0x4 MSTORE PUSH1 0x24 PUSH0 REVERT JUMPDEST PUSH0 PUSH2 0xBBC DUP3 PUSH2 0x790 JUMP JUMPDEST SWAP2 POP PUSH32 0xFFFFFFFFFFFFFFFFFFFFFFFFFFFFFFFFFFFFFFFFFFFFFFFFFFFFFFFFFFFFFFFF DUP3 SUB PUSH2 0xBEE JUMPI PUSH2 0xBED PUSH2 0xB85 JUMP JUMPDEST JUMPDEST PUSH1 0x1 DUP3 ADD SWAP1 POP SWAP2 SWAP1 POP JUMP JUMPDEST PUSH32 0x4E487B7100000000000000000000000000000000000000000000000000000000 PUSH0 MSTORE PUSH1 0x22 PUSH1 0x4 MSTORE PUSH1 0x24 PUSH0 REVERT JUMPDEST PUSH0 PUSH1 0x2 DUP3 DIV SWAP1 POP PUSH1 0x1 DUP3 AND DUP1 PUSH2 0xC3D JUMPI PUSH1 0x7F DUP3 AND SWAP2 POP JUMPDEST PUSH1 0x20 DUP3 LT DUP2 SUB PUSH2 0xC50 JUMPI PUSH2 0xC4F PUSH2 0xBF9 JUMP JUMPDEST JUMPDEST POP SWAP2 SWAP1 POP JUMP JUMPDEST PUSH0 DUP2 SWAP1 POP DUP2 PUSH0 MSTORE PUSH1 0x20 PUSH0 KECCAK256 SWAP1 POP SWAP2 SWAP1 POP JUMP JUMPDEST PUSH0 PUSH1 0x20 PUSH1 0x1F DUP4 ADD DIV SWAP1 POP SWAP2 SWAP1 POP JUMP JUMPDEST PUSH0 DUP3 DUP3 SHL SWAP1 POP SWAP3 SWAP2 POP POP JUMP JUMPDEST PUSH0 PUSH1 0x8 DUP4 MUL PUSH2 0xCB2 PUSH32 0xFFFFFFFFFFFFFFFFFFFFFFFFFFFFFFFFFFFFFFFFFFFFFFFFFFFFFFFFFFFFFFFF DUP3 PUSH2 0xC77 JUMP JUMPDEST PUSH2 0xCBC DUP7 DUP4 PUSH2 0xC77 JUMP JUMPDEST SWAP6 POP DUP1 NOT DUP5 AND SWAP4 POP DUP1 DUP7 AND DUP5 OR SWAP3 POP POP POP SWAP4 SWAP3 POP POP POP JUMP JUMPDEST PUSH0 DUP2 SWAP1 POP SWAP2 SWAP1 POP JUMP JUMPDEST PUSH0 PUSH2 0xCF7 PUSH2 0xCF2 PUSH2 0xCED DUP5 PUSH2 0x790 JUMP JUMPDEST PUSH2 0xCD4 JUMP JUMPDEST PUSH2 0x790 JUMP JUMPDEST SWAP1 POP SWAP2 SWAP1 POP JUMP JUMPDEST PUSH0 DUP2 SWAP1 POP SWAP2 SWAP1 POP JUMP JUMPDEST PUSH2 0xD10 DUP4 PUSH2 0xCDD JUMP JUMPDEST PUSH2 0xD24 PUSH2 0xD1C DUP3 PUSH2 0xCFE JUMP JUMPDEST DUP5 DUP5 SLOAD PUSH2 0xC83 JUMP JUMPDEST DUP3 SSTORE POP POP POP POP JUMP JUMPDEST PUSH0 SWAP1 JUMP JUMPDEST PUSH2 0xD38 PUSH2 0xD2C JUMP JUMPDEST PUSH2 0xD43 DUP2 DUP5 DUP5 PUSH2 0xD07 JUMP JUMPDEST POP POP POP JUMP JUMPDEST JUMPDEST DUP2 DUP2 LT ISZERO PUSH2 0xD66 JUMPI PUSH2 0xD5B PUSH0 DUP3 PUSH2 0xD30 JUMP JUMPDEST PUSH1 0x1 DUP2 ADD SWAP1 POP PUSH2 0xD49 JUMP JUMPDEST POP POP JUMP JUMPDEST PUSH1 0x1F DUP3 GT ISZERO PUSH2 0xDAB JUMPI PUSH2 0xD7C DUP2 PUSH2 0xC56 JUMP JUMPDEST PUSH2 0xD85 DUP5 PUSH2 0xC68 JUMP JUMPDEST DUP2 ADD PUSH1 0x20 DUP6 LT ISZERO PUSH2 0xD94 JUMPI DUP2 SWAP1 POP JUMPDEST PUSH2 0xDA8 PUSH2 0xDA0 DUP6 PUSH2 0xC68 JUMP JUMPDEST DUP4 ADD DUP3 PUSH2 0xD48 JUMP JUMPDEST POP POP JUMPDEST POP POP POP JUMP JUMPDEST PUSH0 DUP3 DUP3 SHR SWAP1 POP SWAP3 SWAP2 POP POP JUMP JUMPDEST PUSH0 PUSH2 0xDCB PUSH0 NOT DUP5 PUSH1 0x8 MUL PUSH2 0xDB0 JUMP JUMPDEST NOT DUP1 DUP4 AND SWAP2 POP POP SWAP3 SWAP2 POP POP JUMP JUMPDEST PUSH0 PUSH2 0xDE3 DUP4 DUP4 PUSH2 0xDBC JUMP JUMPDEST SWAP2 POP DUP3 PUSH1 0x2 MUL DUP3 OR SWAP1 POP SWAP3 SWAP2 POP POP JUMP JUMPDEST PUSH2 0xDFC DUP3 PUSH2 0x816 JUMP JUMPDEST PUSH8 0xFFFFFFFFFFFFFFFF DUP2 GT ISZERO PUSH2 0xE15 JUMPI PUSH2 0xE14 PUSH2 0x8BC JUMP JUMPDEST JUMPDEST PUSH2 0xE1F DUP3 SLOAD PUSH2 0xC26 JUMP JUMPDEST PUSH2 0xE2A DUP3 DUP3 DUP6 PUSH2 0xD6A JUMP JUMPDEST PUSH0 PUSH1 0x20 SWAP1 POP PUSH1 0x1F DUP4 GT PUSH1 0x1 DUP2 EQ PUSH2 0xE5B JUMPI PUSH0 DUP5 ISZERO PUSH2 0xE49 JUMPI DUP3 DUP8 ADD MLOAD SWAP1 POP JUMPDEST PUSH2 0xE53 DUP6 DUP3 PUSH2 0xDD8 JUMP JUMPDEST DUP7 SSTORE POP PUSH2 0xEBA JUMP JUMPDEST PUSH1 0x1F NOT DUP5 AND PUSH2 0xE69 DUP7 PUSH2 0xC56 JUMP JUMPDEST PUSH0 JUMPDEST DUP3 DUP2 LT ISZERO PUSH2 0xE90 JUMPI DUP5 DUP10 ADD MLOAD DUP3 SSTORE PUSH1 0x1 DUP3 ADD SWAP2 POP PUSH1 0x20 DUP6 ADD SWAP5 POP PUSH1 0x20 DUP2 ADD SWAP1 POP PUSH2 0xE6B JUMP JUMPDEST DUP7 DUP4 LT ISZERO PUSH2 0xEAD JUMPI DUP5 DUP10 ADD MLOAD PUSH2 0xEA9 PUSH1 0x1F DUP10 AND DUP3 PUSH2 0xDBC JUMP JUMPDEST DUP4 SSTORE POP JUMPDEST PUSH1 0x1 PUSH1 0x2 DUP9 MUL ADD DUP9 SSTORE POP POP POP JUMPDEST POP POP POP POP POP POP JUMP INVALID LOG2 PUSH5 0x6970667358 0x22 SLT KECCAK256 0xA7 SSTORE 0x22 ADDRESS DUP9 DUP2 MUL SMOD 0xC3 ORIGIN JUMPI SWAP3 0xB7 EXP CALLDATACOPY PUSH32 0x3A2F2CCF69A89E756D9D0B2EDE5E2D3764736F6C634300081A00330000000000 "
				},
				"gasEstimates": {
					"creation": {
						"codeDepositCost": "766400",
						"executionCost": "797",
						"totalCost": "767197"
					},
					"external": {
						"addCandidate(string)": "infinite",
						"authorizeVoter(address)": "27063",
						"candidates(uint256)": "infinite",
						"electionName()": "infinite",
						"getNumCandidates()": "2529",
						"owner()": "2527",
						"startElection(string)": "infinite",
						"totalVotes()": "2448",
						"vote(uint256)": "infinite",
						"voters(address)": "infinite"
					}
				},
				"methodIdentifiers": {
					"addCandidate(string)": "462e91ec",
					"authorizeVoter(address)": "fd47b368",
					"candidates(uint256)": "3477ee2e",
					"electionName()": "85e8e7a7",
					"getNumCandidates()": "5c06b06e",
					"owner()": "8da5cb5b",
					"startElection(string)": "f544bed8",
					"totalVotes()": "0d15fd77",
					"vote(uint256)": "0121b93f",
					"voters(address)": "a3ec138d"
				}
			},
			"storageLayout": {
				"storage": [
					{
						"astId": 17,
						"contract": "Election.sol:Election",
						"label": "owner",
						"offset": 0,
						"slot": "0",
						"type": "t_address"
					},
					{
						"astId": 19,
						"contract": "Election.sol:Election",
						"label": "electionName",
						"offset": 0,
						"slot": "1",
						"type": "t_string_storage"
					},
					{
						"astId": 24,
						"contract": "Election.sol:Election",
						"label": "voters",
						"offset": 0,
						"slot": "2",
						"type": "t_mapping(t_address,t_struct(Voter)15_storage)"
					},
					{
						"astId": 28,
						"contract": "Election.sol:Election",
						"label": "candidates",
						"offset": 0,
						"slot": "3",
						"type": "t_array(t_struct(Candidate)6_storage)dyn_storage"
					},
					{
						"astId": 30,
						"contract": "Election.sol:Election",
						"label": "totalVotes",
						"offset": 0,
						"slot": "4",
						"type": "t_uint256"
					}
				],
				"types": {
					"t_address": {
						"encoding": "inplace",
						"label": "address",
						"numberOfBytes": "20"
					},
					"t_array(t_struct(Candidate)6_storage)dyn_storage": {
						"base": "t_struct(Candidate)6_storage",
						"encoding": "dynamic_array",
						"label": "struct Election.Candidate[]",
						"numberOfBytes": "32"
					},
					"t_bool": {
						"encoding": "inplace",
						"label": "bool",
						"numberOfBytes": "1"
					},
					"t_mapping(t_address,t_struct(Voter)15_storage)": {
						"encoding": "mapping",
						"key": "t_address",
						"label": "mapping(address => struct Election.Voter)",
						"numberOfBytes": "32",
						"value": "t_struct(Voter)15_storage"
					},
					"t_string_storage": {
						"encoding": "bytes",
						"label": "string",
						"numberOfBytes": "32"
					},
					"t_struct(Candidate)6_storage": {
						"encoding": "inplace",
						"label": "struct Election.Candidate",
						"members": [
							{
								"astId": 3,
								"contract": "Election.sol:Election",
								"label": "name",
								"offset": 0,
								"slot": "0",
								"type": "t_string_storage"
							},
							{
								"astId": 5,
								"contract": "Election.sol:Election",
								"label": "numVotes",
								"offset": 0,
								"slot": "1",
								"type": "t_uint256"
							}
						],
						"numberOfBytes": "64"
					},
					"t_struct(Voter)15_storage": {
						"encoding": "inplace",
						"label": "struct Election.Voter",
						"members": [
							{
								"astId": 8,
								"contract": "Election.sol:Election",
								"label": "name",
								"offset": 0,
								"slot": "0",
								"type": "t_string_storage"
							},
							{
								"astId": 10,
								"contract": "Election.sol:Election",
								"label": "authorized",
								"offset": 0,
								"slot": "1",
								"type": "t_bool"
							},
							{
								"astId": 12,
								"contract": "Election.sol:Election",
								"label": "whom",
								"offset": 0,
								"slot": "2",
								"type": "t_uint256"
							},
							{
								"astId": 14,
								"contract": "Election.sol:Election",
								"label": "voted",
								"offset": 0,
								"slot": "3",
								"type": "t_bool"
							}
						],
						"numberOfBytes": "128"
					},
					"t_uint256": {
						"encoding": "inplace",
						"label": "uint256",
						"numberOfBytes": "32"
					}
				}
			},
			"userdoc": {
				"kind": "user",
				"methods": {},
				"version": 1
			}
		}
	}
}